{
  "_format": "hh-sol-artifact-1",
  "contractName": "PlantifulERC721",
  "sourceName": "contracts/PlantifulERC721.sol",
  "abi": [
    {
      "inputs": [
        {
          "internalType": "string",
          "name": "name",
          "type": "string"
        },
        {
          "internalType": "string",
          "name": "symbol",
          "type": "string"
        }
      ],
      "stateMutability": "nonpayable",
      "type": "constructor"
    },
    {
      "anonymous": false,
      "inputs": [
        {
          "indexed": true,
          "internalType": "address",
          "name": "owner",
          "type": "address"
        },
        {
          "indexed": true,
          "internalType": "address",
          "name": "approved",
          "type": "address"
        },
        {
          "indexed": true,
          "internalType": "uint256",
          "name": "tokenId",
          "type": "uint256"
        }
      ],
      "name": "Approval",
      "type": "event"
    },
    {
      "anonymous": false,
      "inputs": [
        {
          "indexed": true,
          "internalType": "address",
          "name": "owner",
          "type": "address"
        },
        {
          "indexed": true,
          "internalType": "address",
          "name": "operator",
          "type": "address"
        },
        {
          "indexed": false,
          "internalType": "bool",
          "name": "approved",
          "type": "bool"
        }
      ],
      "name": "ApprovalForAll",
      "type": "event"
    },
    {
      "anonymous": false,
      "inputs": [
        {
          "indexed": true,
          "internalType": "address",
          "name": "previousOwner",
          "type": "address"
        },
        {
          "indexed": true,
          "internalType": "address",
          "name": "newOwner",
          "type": "address"
        }
      ],
      "name": "OwnershipTransferred",
      "type": "event"
    },
    {
      "anonymous": false,
      "inputs": [
        {
          "indexed": true,
          "internalType": "address",
          "name": "from",
          "type": "address"
        },
        {
          "indexed": true,
          "internalType": "address",
          "name": "to",
          "type": "address"
        },
        {
          "indexed": true,
          "internalType": "uint256",
          "name": "tokenId",
          "type": "uint256"
        }
      ],
      "name": "Transfer",
      "type": "event"
    },
    {
      "inputs": [
        {
          "internalType": "address",
          "name": "to",
          "type": "address"
        },
        {
          "internalType": "uint256",
          "name": "tokenId",
          "type": "uint256"
        }
      ],
      "name": "approve",
      "outputs": [],
      "stateMutability": "nonpayable",
      "type": "function"
    },
    {
      "inputs": [
        {
          "internalType": "address",
          "name": "owner",
          "type": "address"
        }
      ],
      "name": "balanceOf",
      "outputs": [
        {
          "internalType": "uint256",
          "name": "",
          "type": "uint256"
        }
      ],
      "stateMutability": "view",
      "type": "function"
    },
    {
      "inputs": [
        {
          "internalType": "uint256",
          "name": "tokenId",
          "type": "uint256"
        }
      ],
      "name": "getApproved",
      "outputs": [
        {
          "internalType": "address",
          "name": "",
          "type": "address"
        }
      ],
      "stateMutability": "view",
      "type": "function"
    },
    {
      "inputs": [
        {
          "internalType": "address",
          "name": "user",
          "type": "address"
        }
      ],
      "name": "getUsersPlants",
      "outputs": [
        {
          "components": [
            {
              "internalType": "uint256",
              "name": "generatedAt",
              "type": "uint256"
            },
            {
              "internalType": "uint256",
              "name": "lastWateredAt",
              "type": "uint256"
            },
            {
              "internalType": "uint256",
              "name": "droughtResistance",
              "type": "uint256"
            },
            {
              "internalType": "enum PlantifulERC721.PlantKind",
              "name": "kind",
              "type": "uint8"
            }
          ],
          "internalType": "struct PlantifulERC721.Plant[]",
          "name": "",
          "type": "tuple[]"
        }
      ],
      "stateMutability": "view",
      "type": "function"
    },
    {
      "inputs": [
        {
          "internalType": "address",
          "name": "owner",
          "type": "address"
        },
        {
          "internalType": "address",
          "name": "operator",
          "type": "address"
        }
      ],
      "name": "isApprovedForAll",
      "outputs": [
        {
          "internalType": "bool",
          "name": "",
          "type": "bool"
        }
      ],
      "stateMutability": "view",
      "type": "function"
    },
    {
      "inputs": [
        {
          "internalType": "uint256",
          "name": "droughtResistance",
          "type": "uint256"
        },
        {
          "internalType": "enum PlantifulERC721.PlantKind",
          "name": "kind",
          "type": "uint8"
        }
      ],
      "name": "mint",
      "outputs": [],
      "stateMutability": "nonpayable",
      "type": "function"
    },
    {
      "inputs": [],
      "name": "name",
      "outputs": [
        {
          "internalType": "string",
          "name": "",
          "type": "string"
        }
      ],
      "stateMutability": "view",
      "type": "function"
    },
    {
      "inputs": [],
      "name": "owner",
      "outputs": [
        {
          "internalType": "address",
          "name": "",
          "type": "address"
        }
      ],
      "stateMutability": "view",
      "type": "function"
    },
    {
      "inputs": [
        {
          "internalType": "uint256",
          "name": "tokenId",
          "type": "uint256"
        }
      ],
      "name": "ownerOf",
      "outputs": [
        {
          "internalType": "address",
          "name": "",
          "type": "address"
        }
      ],
      "stateMutability": "view",
      "type": "function"
    },
    {
      "inputs": [],
      "name": "renounceOwnership",
      "outputs": [],
      "stateMutability": "nonpayable",
      "type": "function"
    },
    {
      "inputs": [
        {
          "internalType": "address",
          "name": "from",
          "type": "address"
        },
        {
          "internalType": "address",
          "name": "to",
          "type": "address"
        },
        {
          "internalType": "uint256",
          "name": "tokenId",
          "type": "uint256"
        }
      ],
      "name": "safeTransferFrom",
      "outputs": [],
      "stateMutability": "nonpayable",
      "type": "function"
    },
    {
      "inputs": [
        {
          "internalType": "address",
          "name": "from",
          "type": "address"
        },
        {
          "internalType": "address",
          "name": "to",
          "type": "address"
        },
        {
          "internalType": "uint256",
          "name": "tokenId",
          "type": "uint256"
        },
        {
          "internalType": "bytes",
          "name": "_data",
          "type": "bytes"
        }
      ],
      "name": "safeTransferFrom",
      "outputs": [],
      "stateMutability": "nonpayable",
      "type": "function"
    },
    {
      "inputs": [
        {
          "internalType": "address",
          "name": "operator",
          "type": "address"
        },
        {
          "internalType": "bool",
          "name": "approved",
          "type": "bool"
        }
      ],
      "name": "setApprovalForAll",
      "outputs": [],
      "stateMutability": "nonpayable",
      "type": "function"
    },
    {
      "inputs": [
        {
          "internalType": "bytes4",
          "name": "interfaceId",
          "type": "bytes4"
        }
      ],
      "name": "supportsInterface",
      "outputs": [
        {
          "internalType": "bool",
          "name": "",
          "type": "bool"
        }
      ],
      "stateMutability": "view",
      "type": "function"
    },
    {
      "inputs": [],
      "name": "symbol",
      "outputs": [
        {
          "internalType": "string",
          "name": "",
          "type": "string"
        }
      ],
      "stateMutability": "view",
      "type": "function"
    },
    {
      "inputs": [
        {
          "internalType": "uint256",
          "name": "tokenId",
          "type": "uint256"
        }
      ],
      "name": "tokenURI",
      "outputs": [
        {
          "internalType": "string",
          "name": "",
          "type": "string"
        }
      ],
      "stateMutability": "view",
      "type": "function"
    },
    {
      "inputs": [
        {
          "internalType": "address",
          "name": "from",
          "type": "address"
        },
        {
          "internalType": "address",
          "name": "to",
          "type": "address"
        },
        {
          "internalType": "uint256",
          "name": "tokenId",
          "type": "uint256"
        }
      ],
      "name": "transferFrom",
      "outputs": [],
      "stateMutability": "nonpayable",
      "type": "function"
    },
    {
      "inputs": [
        {
          "internalType": "address",
          "name": "newOwner",
          "type": "address"
        }
      ],
      "name": "transferOwnership",
      "outputs": [],
      "stateMutability": "nonpayable",
      "type": "function"
    },
    {
      "inputs": [
        {
          "internalType": "uint256",
          "name": "tokenId",
          "type": "uint256"
        }
      ],
      "name": "water",
      "outputs": [],
      "stateMutability": "nonpayable",
      "type": "function"
    }
  ],
  "bytecode": "0x608060405260006007553480156200001657600080fd5b506040516200391a3803806200391a83398181016040528101906200003c91906200028a565b818181600090805190602001906200005692919062000168565b5080600190805190602001906200006f92919062000168565b50505062000092620000866200009a60201b60201c565b620000a260201b60201c565b50506200046d565b600033905090565b6000600660009054906101000a900473ffffffffffffffffffffffffffffffffffffffff16905081600660006101000a81548173ffffffffffffffffffffffffffffffffffffffff021916908373ffffffffffffffffffffffffffffffffffffffff1602179055508173ffffffffffffffffffffffffffffffffffffffff168173ffffffffffffffffffffffffffffffffffffffff167f8be0079c531659141344cd1fd0a4f28419497f9722a3daafe3b4186f6b6457e060405160405180910390a35050565b828054620001769062000392565b90600052602060002090601f0160209004810192826200019a5760008555620001e6565b82601f10620001b557805160ff1916838001178555620001e6565b82800160010185558215620001e6579182015b82811115620001e5578251825591602001919060010190620001c8565b5b509050620001f59190620001f9565b5090565b5b8082111562000214576000816000905550600101620001fa565b5090565b60006200022f620002298462000326565b620002fd565b9050828152602081018484840111156200024857600080fd5b620002558482856200035c565b509392505050565b600082601f8301126200026f57600080fd5b81516200028184826020860162000218565b91505092915050565b600080604083850312156200029e57600080fd5b600083015167ffffffffffffffff811115620002b957600080fd5b620002c7858286016200025d565b925050602083015167ffffffffffffffff811115620002e557600080fd5b620002f3858286016200025d565b9150509250929050565b6000620003096200031c565b9050620003178282620003c8565b919050565b6000604051905090565b600067ffffffffffffffff8211156200034457620003436200042d565b5b6200034f826200045c565b9050602081019050919050565b60005b838110156200037c5780820151818401526020810190506200035f565b838111156200038c576000848401525b50505050565b60006002820490506001821680620003ab57607f821691505b60208210811415620003c257620003c1620003fe565b5b50919050565b620003d3826200045c565b810181811067ffffffffffffffff82111715620003f557620003f46200042d565b5b80604052505050565b7f4e487b7100000000000000000000000000000000000000000000000000000000600052602260045260246000fd5b7f4e487b7100000000000000000000000000000000000000000000000000000000600052604160045260246000fd5b6000601f19601f8301169050919050565b61349d806200047d6000396000f3fe608060405234801561001057600080fd5b50600436106101215760003560e01c80638da5cb5b116100ad578063b88d4fde11610071578063b88d4fde14610306578063c87b56dd14610322578063e985e9c514610352578063f2fde38b14610382578063fb2f1ffb1461039e57610121565b80638da5cb5b146102625780638f93a1c81461028057806395d89b41146102b0578063a22cb465146102ce578063a7eec44b146102ea57610121565b806323b872dd116100f457806323b872dd146101c057806342842e0e146101dc5780636352211e146101f857806370a0823114610228578063715018a61461025857610121565b806301ffc9a71461012657806306fdde0314610156578063081812fc14610174578063095ea7b3146101a4575b600080fd5b610140600480360381019061013b919061223f565b6103ba565b60405161014d91906127f5565b60405180910390f35b61015e61049c565b60405161016b9190612810565b60405180910390f35b61018e60048036038101906101899190612291565b61052e565b60405161019b919061276c565b60405180910390f35b6101be60048036038101906101b99190612203565b6105b3565b005b6101da60048036038101906101d591906120fd565b6106cb565b005b6101f660048036038101906101f191906120fd565b61072b565b005b610212600480360381019061020d9190612291565b61074b565b60405161021f919061276c565b60405180910390f35b610242600480360381019061023d9190612098565b6107fd565b60405161024f9190612a92565b60405180910390f35b6102606108b5565b005b61026a61093d565b604051610277919061276c565b60405180910390f35b61029a60048036038101906102959190612098565b610967565b6040516102a791906127d3565b60405180910390f35b6102b8610c06565b6040516102c59190612810565b60405180910390f35b6102e860048036038101906102e391906121c7565b610c98565b005b61030460048036038101906102ff9190612291565b610cae565b005b610320600480360381019061031b919061214c565b610d9d565b005b61033c60048036038101906103379190612291565b610dff565b6040516103499190612810565b60405180910390f35b61036c600480360381019061036791906120c1565b610ea6565b60405161037991906127f5565b60405180910390f35b61039c60048036038101906103979190612098565b610f3a565b005b6103b860048036038101906103b391906122ba565b611032565b005b60007f80ac58cd000000000000000000000000000000000000000000000000000000007bffffffffffffffffffffffffffffffffffffffffffffffffffffffff1916827bffffffffffffffffffffffffffffffffffffffffffffffffffffffff1916148061048557507f5b5e139f000000000000000000000000000000000000000000000000000000007bffffffffffffffffffffffffffffffffffffffffffffffffffffffff1916827bffffffffffffffffffffffffffffffffffffffffffffffffffffffff1916145b806104955750610494826111bb565b5b9050919050565b6060600080546104ab90612d15565b80601f01602080910402602001604051908101604052809291908181526020018280546104d790612d15565b80156105245780601f106104f957610100808354040283529160200191610524565b820191906000526020600020905b81548152906001019060200180831161050757829003601f168201915b5050505050905090565b600061053982611225565b610578576040517f08c379a000000000000000000000000000000000000000000000000000000000815260040161056f90612992565b60405180910390fd5b6004600083815260200190815260200160002060009054906101000a900473ffffffffffffffffffffffffffffffffffffffff169050919050565b60006105be8261074b565b90508073ffffffffffffffffffffffffffffffffffffffff168373ffffffffffffffffffffffffffffffffffffffff16141561062f576040517f08c379a000000000000000000000000000000000000000000000000000000000815260040161062690612a32565b60405180910390fd5b8073ffffffffffffffffffffffffffffffffffffffff1661064e611291565b73ffffffffffffffffffffffffffffffffffffffff16148061067d575061067c81610677611291565b610ea6565b5b6106bc576040517f08c379a00000000000000000000000000000000000000000000000000000000081526004016106b390612912565b60405180910390fd5b6106c68383611299565b505050565b6106dc6106d6611291565b82611352565b61071b576040517f08c379a000000000000000000000000000000000000000000000000000000000815260040161071290612a72565b60405180910390fd5b610726838383611430565b505050565b61074683838360405180602001604052806000815250610d9d565b505050565b6000806002600084815260200190815260200160002060009054906101000a900473ffffffffffffffffffffffffffffffffffffffff169050600073ffffffffffffffffffffffffffffffffffffffff168173ffffffffffffffffffffffffffffffffffffffff1614156107f4576040517f08c379a00000000000000000000000000000000000000000000000000000000081526004016107eb90612952565b60405180910390fd5b80915050919050565b60008073ffffffffffffffffffffffffffffffffffffffff168273ffffffffffffffffffffffffffffffffffffffff16141561086e576040517f08c379a000000000000000000000000000000000000000000000000000000000815260040161086590612932565b60405180910390fd5b600360008373ffffffffffffffffffffffffffffffffffffffff1673ffffffffffffffffffffffffffffffffffffffff168152602001908152602001600020549050919050565b6108bd611291565b73ffffffffffffffffffffffffffffffffffffffff166108db61093d565b73ffffffffffffffffffffffffffffffffffffffff1614610931576040517f08c379a0000000000000000000000000000000000000000000000000000000008152600401610928906129b2565b60405180910390fd5b61093b600061168c565b565b6000600660009054906101000a900473ffffffffffffffffffffffffffffffffffffffff16905090565b60606000610974836107fd565b90506000811415610a0257600067ffffffffffffffff8111156109c0577f4e487b7100000000000000000000000000000000000000000000000000000000600052604160045260246000fd5b6040519080825280602002602001820160405280156109f957816020015b6109e6611f52565b8152602001906001900390816109de5790505b50915050610c01565b60008167ffffffffffffffff811115610a44577f4e487b7100000000000000000000000000000000000000000000000000000000600052604160045260246000fd5b604051908082528060200260200182016040528015610a7d57816020015b610a6a611f52565b815260200190600190039081610a625790505b509050600060075490506000805b82811015610bf8578673ffffffffffffffffffffffffffffffffffffffff16610ab38261074b565b73ffffffffffffffffffffffffffffffffffffffff161415610be557600860008281526020019081526020016000206040518060800160405290816000820154815260200160018201548152602001600282015481526020016003820160009054906101000a900460ff166003811115610b56577f4e487b7100000000000000000000000000000000000000000000000000000000600052602160045260246000fd5b6003811115610b8e577f4e487b7100000000000000000000000000000000000000000000000000000000600052602160045260246000fd5b81525050848381518110610bcb577f4e487b7100000000000000000000000000000000000000000000000000000000600052603260045260246000fd5b60200260200101819052508180610be190612d78565b9250505b8080610bf090612d78565b915050610a8b565b83955050505050505b919050565b606060018054610c1590612d15565b80601f0160208091040260200160405190810160405280929190818152602001828054610c4190612d15565b8015610c8e5780601f10610c6357610100808354040283529160200191610c8e565b820191906000526020600020905b815481529060010190602001808311610c7157829003601f168201915b5050505050905090565b610caa610ca3611291565b8383611752565b5050565b60006008600083815260200190815260200160002090504281600201548260010154610cda9190612b7f565b11610d1a576040517f08c379a0000000000000000000000000000000000000000000000000000000008152600401610d1190612a52565b60405180910390fd5b610d238261074b565b73ffffffffffffffffffffffffffffffffffffffff163373ffffffffffffffffffffffffffffffffffffffff1614610d90576040517f08c379a0000000000000000000000000000000000000000000000000000000008152600401610d8790612832565b60405180910390fd5b4281600101819055505050565b610dae610da8611291565b83611352565b610ded576040517f08c379a0000000000000000000000000000000000000000000000000000000008152600401610de490612a72565b60405180910390fd5b610df9848484846118bf565b50505050565b6060610e0a82611225565b610e49576040517f08c379a0000000000000000000000000000000000000000000000000000000008152600401610e40906129f2565b60405180910390fd5b6000610e5361191b565b90506000815111610e735760405180602001604052806000815250610e9e565b80610e7d84611932565b604051602001610e8e929190612748565b6040516020818303038152906040525b915050919050565b6000600560008473ffffffffffffffffffffffffffffffffffffffff1673ffffffffffffffffffffffffffffffffffffffff16815260200190815260200160002060008373ffffffffffffffffffffffffffffffffffffffff1673ffffffffffffffffffffffffffffffffffffffff16815260200190815260200160002060009054906101000a900460ff16905092915050565b610f42611291565b73ffffffffffffffffffffffffffffffffffffffff16610f6061093d565b73ffffffffffffffffffffffffffffffffffffffff1614610fb6576040517f08c379a0000000000000000000000000000000000000000000000000000000008152600401610fad906129b2565b60405180910390fd5b600073ffffffffffffffffffffffffffffffffffffffff168173ffffffffffffffffffffffffffffffffffffffff161415611026576040517f08c379a000000000000000000000000000000000000000000000000000000000815260040161101d90612872565b60405180910390fd5b61102f8161168c565b50565b61103a611291565b73ffffffffffffffffffffffffffffffffffffffff1661105861093d565b73ffffffffffffffffffffffffffffffffffffffff16146110ae576040517f08c379a00000000000000000000000000000000000000000000000000000000081526004016110a5906129b2565b60405180910390fd5b6040518060800160405280428152602001428152602001838152602001826003811115611104577f4e487b7100000000000000000000000000000000000000000000000000000000600052602160045260246000fd5b81525060086000600754815260200190815260200160002060008201518160000155602082015181600101556040820151816002015560608201518160030160006101000a81548160ff0219169083600381111561118b577f4e487b7100000000000000000000000000000000000000000000000000000000600052602160045260246000fd5b021790555090505061119f33600754611adf565b600760008154809291906111b290612d78565b91905055505050565b60007f01ffc9a7000000000000000000000000000000000000000000000000000000007bffffffffffffffffffffffffffffffffffffffffffffffffffffffff1916827bffffffffffffffffffffffffffffffffffffffffffffffffffffffff1916149050919050565b60008073ffffffffffffffffffffffffffffffffffffffff166002600084815260200190815260200160002060009054906101000a900473ffffffffffffffffffffffffffffffffffffffff1673ffffffffffffffffffffffffffffffffffffffff1614159050919050565b600033905090565b816004600083815260200190815260200160002060006101000a81548173ffffffffffffffffffffffffffffffffffffffff021916908373ffffffffffffffffffffffffffffffffffffffff160217905550808273ffffffffffffffffffffffffffffffffffffffff1661130c8361074b565b73ffffffffffffffffffffffffffffffffffffffff167f8c5be1e5ebec7d5bd14f71427d1e84f3dd0314c0f7b2291e5b200ac8c7c3b92560405160405180910390a45050565b600061135d82611225565b61139c576040517f08c379a0000000000000000000000000000000000000000000000000000000008152600401611393906128f2565b60405180910390fd5b60006113a78361074b565b90508073ffffffffffffffffffffffffffffffffffffffff168473ffffffffffffffffffffffffffffffffffffffff16148061141657508373ffffffffffffffffffffffffffffffffffffffff166113fe8461052e565b73ffffffffffffffffffffffffffffffffffffffff16145b8061142757506114268185610ea6565b5b91505092915050565b8273ffffffffffffffffffffffffffffffffffffffff166114508261074b565b73ffffffffffffffffffffffffffffffffffffffff16146114a6576040517f08c379a000000000000000000000000000000000000000000000000000000000815260040161149d906129d2565b60405180910390fd5b600073ffffffffffffffffffffffffffffffffffffffff168273ffffffffffffffffffffffffffffffffffffffff161415611516576040517f08c379a000000000000000000000000000000000000000000000000000000000815260040161150d906128b2565b60405180910390fd5b611521838383611afd565b61152c600082611299565b6001600360008573ffffffffffffffffffffffffffffffffffffffff1673ffffffffffffffffffffffffffffffffffffffff168152602001908152602001600020600082825461157c9190612c06565b925050819055506001600360008473ffffffffffffffffffffffffffffffffffffffff1673ffffffffffffffffffffffffffffffffffffffff16815260200190815260200160002060008282546115d39190612b7f565b92505081905550816002600083815260200190815260200160002060006101000a81548173ffffffffffffffffffffffffffffffffffffffff021916908373ffffffffffffffffffffffffffffffffffffffff160217905550808273ffffffffffffffffffffffffffffffffffffffff168473ffffffffffffffffffffffffffffffffffffffff167fddf252ad1be2c89b69c2b068fc378daa952ba7f163c4a11628f55a4df523b3ef60405160405180910390a4505050565b6000600660009054906101000a900473ffffffffffffffffffffffffffffffffffffffff16905081600660006101000a81548173ffffffffffffffffffffffffffffffffffffffff021916908373ffffffffffffffffffffffffffffffffffffffff1602179055508173ffffffffffffffffffffffffffffffffffffffff168173ffffffffffffffffffffffffffffffffffffffff167f8be0079c531659141344cd1fd0a4f28419497f9722a3daafe3b4186f6b6457e060405160405180910390a35050565b8173ffffffffffffffffffffffffffffffffffffffff168373ffffffffffffffffffffffffffffffffffffffff1614156117c1576040517f08c379a00000000000000000000000000000000000000000000000000000000081526004016117b8906128d2565b60405180910390fd5b80600560008573ffffffffffffffffffffffffffffffffffffffff1673ffffffffffffffffffffffffffffffffffffffff16815260200190815260200160002060008473ffffffffffffffffffffffffffffffffffffffff1673ffffffffffffffffffffffffffffffffffffffff16815260200190815260200160002060006101000a81548160ff0219169083151502179055508173ffffffffffffffffffffffffffffffffffffffff168373ffffffffffffffffffffffffffffffffffffffff167f17307eab39ab6107e8899845ad3d59bd9653f200f220920489ca2b5937696c31836040516118b291906127f5565b60405180910390a3505050565b6118ca848484611430565b6118d684848484611b7a565b611915576040517f08c379a000000000000000000000000000000000000000000000000000000000815260040161190c90612852565b60405180910390fd5b50505050565b606060405180602001604052806000815250905090565b6060600082141561197a576040518060400160405280600181526020017f30000000000000000000000000000000000000000000000000000000000000008152509050611ada565b600082905060005b600082146119ac57808061199590612d78565b915050600a826119a59190612bd5565b9150611982565b60008167ffffffffffffffff8111156119ee577f4e487b7100000000000000000000000000000000000000000000000000000000600052604160045260246000fd5b6040519080825280601f01601f191660200182016040528015611a205781602001600182028036833780820191505090505b5090505b60008514611ad357600182611a399190612c06565b9150600a85611a489190612dc1565b6030611a549190612b7f565b60f81b818381518110611a90577f4e487b7100000000000000000000000000000000000000000000000000000000600052603260045260246000fd5b60200101907effffffffffffffffffffffffffffffffffffffffffffffffffffffffffffff1916908160001a905350600a85611acc9190612bd5565b9450611a24565b8093505050505b919050565b611af9828260405180602001604052806000815250611d11565b5050565b60006008600083815260200190815260200160002090504281600201548260010154611b299190612b7f565b11611b69576040517f08c379a0000000000000000000000000000000000000000000000000000000008152600401611b6090612a12565b60405180910390fd5b611b74848484611d6c565b50505050565b6000611b9b8473ffffffffffffffffffffffffffffffffffffffff16611d71565b15611d04578373ffffffffffffffffffffffffffffffffffffffff1663150b7a02611bc4611291565b8786866040518563ffffffff1660e01b8152600401611be69493929190612787565b602060405180830381600087803b158015611c0057600080fd5b505af1925050508015611c3157506040513d601f19601f82011682018060405250810190611c2e9190612268565b60015b611cb4573d8060008114611c61576040519150601f19603f3d011682016040523d82523d6000602084013e611c66565b606091505b50600081511415611cac576040517f08c379a0000000000000000000000000000000000000000000000000000000008152600401611ca390612852565b60405180910390fd5b805181602001fd5b63150b7a0260e01b7bffffffffffffffffffffffffffffffffffffffffffffffffffffffff1916817bffffffffffffffffffffffffffffffffffffffffffffffffffffffff191614915050611d09565b600190505b949350505050565b611d1b8383611d84565b611d286000848484611b7a565b611d67576040517f08c379a0000000000000000000000000000000000000000000000000000000008152600401611d5e90612852565b60405180910390fd5b505050565b505050565b600080823b905060008111915050919050565b600073ffffffffffffffffffffffffffffffffffffffff168273ffffffffffffffffffffffffffffffffffffffff161415611df4576040517f08c379a0000000000000000000000000000000000000000000000000000000008152600401611deb90612972565b60405180910390fd5b611dfd81611225565b15611e3d576040517f08c379a0000000000000000000000000000000000000000000000000000000008152600401611e3490612892565b60405180910390fd5b611e4960008383611afd565b6001600360008473ffffffffffffffffffffffffffffffffffffffff1673ffffffffffffffffffffffffffffffffffffffff1681526020019081526020016000206000828254611e999190612b7f565b92505081905550816002600083815260200190815260200160002060006101000a81548173ffffffffffffffffffffffffffffffffffffffff021916908373ffffffffffffffffffffffffffffffffffffffff160217905550808273ffffffffffffffffffffffffffffffffffffffff16600073ffffffffffffffffffffffffffffffffffffffff167fddf252ad1be2c89b69c2b068fc378daa952ba7f163c4a11628f55a4df523b3ef60405160405180910390a45050565b604051806080016040528060008152602001600081526020016000815260200160006003811115611fac577f4e487b7100000000000000000000000000000000000000000000000000000000600052602160045260246000fd5b81525090565b6000611fc5611fc084612ad2565b612aad565b905082815260208101848484011115611fdd57600080fd5b611fe8848285612cd3565b509392505050565b600081359050611fff816133fb565b92915050565b60008135905061201481613412565b92915050565b60008135905061202981613429565b92915050565b60008151905061203e81613429565b92915050565b600082601f83011261205557600080fd5b8135612065848260208601611fb2565b91505092915050565b60008135905061207d81613440565b92915050565b60008135905061209281613450565b92915050565b6000602082840312156120aa57600080fd5b60006120b884828501611ff0565b91505092915050565b600080604083850312156120d457600080fd5b60006120e285828601611ff0565b92505060206120f385828601611ff0565b9150509250929050565b60008060006060848603121561211257600080fd5b600061212086828701611ff0565b935050602061213186828701611ff0565b925050604061214286828701612083565b9150509250925092565b6000806000806080858703121561216257600080fd5b600061217087828801611ff0565b945050602061218187828801611ff0565b935050604061219287828801612083565b925050606085013567ffffffffffffffff8111156121af57600080fd5b6121bb87828801612044565b91505092959194509250565b600080604083850312156121da57600080fd5b60006121e885828601611ff0565b92505060206121f985828601612005565b9150509250929050565b6000806040838503121561221657600080fd5b600061222485828601611ff0565b925050602061223585828601612083565b9150509250929050565b60006020828403121561225157600080fd5b600061225f8482850161201a565b91505092915050565b60006020828403121561227a57600080fd5b60006122888482850161202f565b91505092915050565b6000602082840312156122a357600080fd5b60006122b184828501612083565b91505092915050565b600080604083850312156122cd57600080fd5b60006122db85828601612083565b92505060206122ec8582860161206e565b9150509250929050565b600061230283836126d5565b60808301905092915050565b61231781612c3a565b82525050565b600061232882612b13565b6123328185612b41565b935061233d83612b03565b8060005b8381101561236e57815161235588826122f6565b975061236083612b34565b925050600181019050612341565b5085935050505092915050565b61238481612c4c565b82525050565b600061239582612b1e565b61239f8185612b52565b93506123af818560208601612ce2565b6123b881612edd565b840191505092915050565b6123cc81612cc1565b82525050565b60006123dd82612b29565b6123e78185612b63565b93506123f7818560208601612ce2565b61240081612edd565b840191505092915050565b600061241682612b29565b6124208185612b74565b9350612430818560208601612ce2565b80840191505092915050565b6000612449602483612b63565b915061245482612eee565b604082019050919050565b600061246c603283612b63565b915061247782612f3d565b604082019050919050565b600061248f602683612b63565b915061249a82612f8c565b604082019050919050565b60006124b2601c83612b63565b91506124bd82612fdb565b602082019050919050565b60006124d5602483612b63565b91506124e082613004565b604082019050919050565b60006124f8601983612b63565b915061250382613053565b602082019050919050565b600061251b602c83612b63565b91506125268261307c565b604082019050919050565b600061253e603883612b63565b9150612549826130cb565b604082019050919050565b6000612561602a83612b63565b915061256c8261311a565b604082019050919050565b6000612584602983612b63565b915061258f82613169565b604082019050919050565b60006125a7602083612b63565b91506125b2826131b8565b602082019050919050565b60006125ca602c83612b63565b91506125d5826131e1565b604082019050919050565b60006125ed602083612b63565b91506125f882613230565b602082019050919050565b6000612610602983612b63565b915061261b82613259565b604082019050919050565b6000612633602f83612b63565b915061263e826132a8565b604082019050919050565b6000612656601b83612b63565b9150612661826132f7565b602082019050919050565b6000612679602183612b63565b915061268482613320565b604082019050919050565b600061269c601883612b63565b91506126a78261336f565b602082019050919050565b60006126bf603183612b63565b91506126ca82613398565b604082019050919050565b6080820160008201516126eb600085018261272a565b5060208201516126fe602085018261272a565b506040820151612711604085018261272a565b50606082015161272460608501826123c3565b50505050565b61273381612cb7565b82525050565b61274281612cb7565b82525050565b6000612754828561240b565b9150612760828461240b565b91508190509392505050565b6000602082019050612781600083018461230e565b92915050565b600060808201905061279c600083018761230e565b6127a9602083018661230e565b6127b66040830185612739565b81810360608301526127c8818461238a565b905095945050505050565b600060208201905081810360008301526127ed818461231d565b905092915050565b600060208201905061280a600083018461237b565b92915050565b6000602082019050818103600083015261282a81846123d2565b905092915050565b6000602082019050818103600083015261284b8161243c565b9050919050565b6000602082019050818103600083015261286b8161245f565b9050919050565b6000602082019050818103600083015261288b81612482565b9050919050565b600060208201905081810360008301526128ab816124a5565b9050919050565b600060208201905081810360008301526128cb816124c8565b9050919050565b600060208201905081810360008301526128eb816124eb565b9050919050565b6000602082019050818103600083015261290b8161250e565b9050919050565b6000602082019050818103600083015261292b81612531565b9050919050565b6000602082019050818103600083015261294b81612554565b9050919050565b6000602082019050818103600083015261296b81612577565b9050919050565b6000602082019050818103600083015261298b8161259a565b9050919050565b600060208201905081810360008301526129ab816125bd565b9050919050565b600060208201905081810360008301526129cb816125e0565b9050919050565b600060208201905081810360008301526129eb81612603565b9050919050565b60006020820190508181036000830152612a0b81612626565b9050919050565b60006020820190508181036000830152612a2b81612649565b9050919050565b60006020820190508181036000830152612a4b8161266c565b9050919050565b60006020820190508181036000830152612a6b8161268f565b9050919050565b60006020820190508181036000830152612a8b816126b2565b9050919050565b6000602082019050612aa76000830184612739565b92915050565b6000612ab7612ac8565b9050612ac38282612d47565b919050565b6000604051905090565b600067ffffffffffffffff821115612aed57612aec612eae565b5b612af682612edd565b9050602081019050919050565b6000819050602082019050919050565b600081519050919050565b600081519050919050565b600081519050919050565b6000602082019050919050565b600082825260208201905092915050565b600082825260208201905092915050565b600082825260208201905092915050565b600081905092915050565b6000612b8a82612cb7565b9150612b9583612cb7565b9250827fffffffffffffffffffffffffffffffffffffffffffffffffffffffffffffffff03821115612bca57612bc9612df2565b5b828201905092915050565b6000612be082612cb7565b9150612beb83612cb7565b925082612bfb57612bfa612e21565b5b828204905092915050565b6000612c1182612cb7565b9150612c1c83612cb7565b925082821015612c2f57612c2e612df2565b5b828203905092915050565b6000612c4582612c97565b9050919050565b60008115159050919050565b60007fffffffff0000000000000000000000000000000000000000000000000000000082169050919050565b6000819050612c92826133e7565b919050565b600073ffffffffffffffffffffffffffffffffffffffff82169050919050565b6000819050919050565b6000612ccc82612c84565b9050919050565b82818337600083830152505050565b60005b83811015612d00578082015181840152602081019050612ce5565b83811115612d0f576000848401525b50505050565b60006002820490506001821680612d2d57607f821691505b60208210811415612d4157612d40612e7f565b5b50919050565b612d5082612edd565b810181811067ffffffffffffffff82111715612d6f57612d6e612eae565b5b80604052505050565b6000612d8382612cb7565b91507fffffffffffffffffffffffffffffffffffffffffffffffffffffffffffffffff821415612db657612db5612df2565b5b600182019050919050565b6000612dcc82612cb7565b9150612dd783612cb7565b925082612de757612de6612e21565b5b828206905092915050565b7f4e487b7100000000000000000000000000000000000000000000000000000000600052601160045260246000fd5b7f4e487b7100000000000000000000000000000000000000000000000000000000600052601260045260246000fd5b7f4e487b7100000000000000000000000000000000000000000000000000000000600052602160045260246000fd5b7f4e487b7100000000000000000000000000000000000000000000000000000000600052602260045260246000fd5b7f4e487b7100000000000000000000000000000000000000000000000000000000600052604160045260246000fd5b6000601f19601f8301169050919050565b7f596f752063616e277420776174657220736f6d656f6e6520656c73652773207060008201527f6c616e7400000000000000000000000000000000000000000000000000000000602082015250565b7f4552433732313a207472616e7366657220746f206e6f6e20455243373231526560008201527f63656976657220696d706c656d656e7465720000000000000000000000000000602082015250565b7f4f776e61626c653a206e6577206f776e657220697320746865207a65726f206160008201527f6464726573730000000000000000000000000000000000000000000000000000602082015250565b7f4552433732313a20746f6b656e20616c7265616479206d696e74656400000000600082015250565b7f4552433732313a207472616e7366657220746f20746865207a65726f2061646460008201527f7265737300000000000000000000000000000000000000000000000000000000602082015250565b7f4552433732313a20617070726f766520746f2063616c6c657200000000000000600082015250565b7f4552433732313a206f70657261746f7220717565727920666f72206e6f6e657860008201527f697374656e7420746f6b656e0000000000000000000000000000000000000000602082015250565b7f4552433732313a20617070726f76652063616c6c6572206973206e6f74206f7760008201527f6e6572206e6f7220617070726f76656420666f7220616c6c0000000000000000602082015250565b7f4552433732313a2062616c616e636520717565727920666f7220746865207a6560008201527f726f206164647265737300000000000000000000000000000000000000000000602082015250565b7f4552433732313a206f776e657220717565727920666f72206e6f6e657869737460008201527f656e7420746f6b656e0000000000000000000000000000000000000000000000602082015250565b7f4552433732313a206d696e7420746f20746865207a65726f2061646472657373600082015250565b7f4552433732313a20617070726f76656420717565727920666f72206e6f6e657860008201527f697374656e7420746f6b656e0000000000000000000000000000000000000000602082015250565b7f4f776e61626c653a2063616c6c6572206973206e6f7420746865206f776e6572600082015250565b7f4552433732313a207472616e73666572206f6620746f6b656e2074686174206960008201527f73206e6f74206f776e0000000000000000000000000000000000000000000000602082015250565b7f4552433732314d657461646174613a2055524920717565727920666f72206e6f60008201527f6e6578697374656e7420746f6b656e0000000000000000000000000000000000602082015250565b7f43616e2774207472616e736665722061206465616420706c616e740000000000600082015250565b7f4552433732313a20617070726f76616c20746f2063757272656e74206f776e6560008201527f7200000000000000000000000000000000000000000000000000000000000000602082015250565b7f43616e27742077617465722061206465616420706c616e740000000000000000600082015250565b7f4552433732313a207472616e736665722063616c6c6572206973206e6f74206f60008201527f776e6572206e6f7220617070726f766564000000000000000000000000000000602082015250565b600481106133f8576133f7612e50565b5b50565b61340481612c3a565b811461340f57600080fd5b50565b61341b81612c4c565b811461342657600080fd5b50565b61343281612c58565b811461343d57600080fd5b50565b6004811061344d57600080fd5b50565b61345981612cb7565b811461346457600080fd5b5056fea2646970667358221220f02f5928611935b3d660b613aaa5edd15c0cd7a0f2937fedc20ad2a1316dcfa264736f6c63430008040033",
  "linkReferences": {},
  "deployedLinkReferences": {}
}