{
  "_format": "hh-sol-artifact-1",
  "contractName": "PlantifulERC721",
  "sourceName": "contracts/PlantifulERC721.sol",
  "abi": [
    {
      "inputs": [
        {
          "internalType": "string",
          "name": "name",
          "type": "string"
        },
        {
          "internalType": "string",
          "name": "symbol",
          "type": "string"
        }
      ],
      "stateMutability": "nonpayable",
      "type": "constructor"
    },
    {
      "anonymous": false,
      "inputs": [
        {
          "indexed": true,
          "internalType": "address",
          "name": "owner",
          "type": "address"
        },
        {
          "indexed": true,
          "internalType": "address",
          "name": "approved",
          "type": "address"
        },
        {
          "indexed": true,
          "internalType": "uint256",
          "name": "tokenId",
          "type": "uint256"
        }
      ],
      "name": "Approval",
      "type": "event"
    },
    {
      "anonymous": false,
      "inputs": [
        {
          "indexed": true,
          "internalType": "address",
          "name": "owner",
          "type": "address"
        },
        {
          "indexed": true,
          "internalType": "address",
          "name": "operator",
          "type": "address"
        },
        {
          "indexed": false,
          "internalType": "bool",
          "name": "approved",
          "type": "bool"
        }
      ],
      "name": "ApprovalForAll",
      "type": "event"
    },
    {
      "anonymous": false,
      "inputs": [
        {
          "indexed": true,
          "internalType": "address",
          "name": "previousOwner",
          "type": "address"
        },
        {
          "indexed": true,
          "internalType": "address",
          "name": "newOwner",
          "type": "address"
        }
      ],
      "name": "OwnershipTransferred",
      "type": "event"
    },
    {
      "anonymous": false,
      "inputs": [
        {
          "indexed": true,
          "internalType": "address",
          "name": "from",
          "type": "address"
        },
        {
          "indexed": true,
          "internalType": "address",
          "name": "to",
          "type": "address"
        },
        {
          "indexed": true,
          "internalType": "uint256",
          "name": "tokenId",
          "type": "uint256"
        }
      ],
      "name": "Transfer",
      "type": "event"
    },
    {
      "inputs": [
        {
          "internalType": "address",
          "name": "to",
          "type": "address"
        },
        {
          "internalType": "uint256",
          "name": "tokenId",
          "type": "uint256"
        }
      ],
      "name": "approve",
      "outputs": [],
      "stateMutability": "nonpayable",
      "type": "function"
    },
    {
      "inputs": [
        {
          "internalType": "address",
          "name": "owner",
          "type": "address"
        }
      ],
      "name": "balanceOf",
      "outputs": [
        {
          "internalType": "uint256",
          "name": "",
          "type": "uint256"
        }
      ],
      "stateMutability": "view",
      "type": "function"
    },
    {
      "inputs": [
        {
          "internalType": "uint256",
          "name": "tokenId",
          "type": "uint256"
        }
      ],
      "name": "getApproved",
      "outputs": [
        {
          "internalType": "address",
          "name": "",
          "type": "address"
        }
      ],
      "stateMutability": "view",
      "type": "function"
    },
    {
      "inputs": [
        {
          "internalType": "uint256",
          "name": "tokenId",
          "type": "uint256"
        }
      ],
      "name": "getPlantWateredState",
      "outputs": [
        {
          "internalType": "enum PlantifulERC721.WateredState",
          "name": "",
          "type": "uint8"
        }
      ],
      "stateMutability": "view",
      "type": "function"
    },
    {
      "inputs": [
        {
          "internalType": "address",
          "name": "user",
          "type": "address"
        }
      ],
      "name": "getUsersPlants",
      "outputs": [
        {
          "components": [
            {
              "components": [
                {
                  "internalType": "uint256",
                  "name": "id",
                  "type": "uint256"
                },
                {
                  "internalType": "uint256",
                  "name": "generatedAt",
                  "type": "uint256"
                },
                {
                  "internalType": "uint8",
                  "name": "wateringFrequencyInDays",
                  "type": "uint8"
                },
                {
                  "internalType": "uint8",
                  "name": "hp",
                  "type": "uint8"
                }
              ],
              "internalType": "struct PlantifulERC721.Plant",
              "name": "plant",
              "type": "tuple"
            },
            {
              "internalType": "uint256",
              "name": "lastWateredAt",
              "type": "uint256"
            },
            {
              "internalType": "enum PlantifulERC721.WateredState",
              "name": "wateredState",
              "type": "uint8"
            }
          ],
          "internalType": "struct PlantifulERC721.PlantDetails[]",
          "name": "",
          "type": "tuple[]"
        }
      ],
      "stateMutability": "view",
      "type": "function"
    },
    {
      "inputs": [
        {
          "internalType": "address",
          "name": "owner",
          "type": "address"
        },
        {
          "internalType": "address",
          "name": "operator",
          "type": "address"
        }
      ],
      "name": "isApprovedForAll",
      "outputs": [
        {
          "internalType": "bool",
          "name": "",
          "type": "bool"
        }
      ],
      "stateMutability": "view",
      "type": "function"
    },
    {
      "inputs": [
        {
          "internalType": "uint8",
          "name": "wateringFrequencyInDays",
          "type": "uint8"
        }
      ],
      "name": "mint",
      "outputs": [],
      "stateMutability": "nonpayable",
      "type": "function"
    },
    {
      "inputs": [],
      "name": "name",
      "outputs": [
        {
          "internalType": "string",
          "name": "",
          "type": "string"
        }
      ],
      "stateMutability": "view",
      "type": "function"
    },
    {
      "inputs": [],
      "name": "owner",
      "outputs": [
        {
          "internalType": "address",
          "name": "",
          "type": "address"
        }
      ],
      "stateMutability": "view",
      "type": "function"
    },
    {
      "inputs": [
        {
          "internalType": "uint256",
          "name": "tokenId",
          "type": "uint256"
        }
      ],
      "name": "ownerOf",
      "outputs": [
        {
          "internalType": "address",
          "name": "",
          "type": "address"
        }
      ],
      "stateMutability": "view",
      "type": "function"
    },
    {
      "inputs": [],
      "name": "renounceOwnership",
      "outputs": [],
      "stateMutability": "nonpayable",
      "type": "function"
    },
    {
      "inputs": [
        {
          "internalType": "address",
          "name": "from",
          "type": "address"
        },
        {
          "internalType": "address",
          "name": "to",
          "type": "address"
        },
        {
          "internalType": "uint256",
          "name": "tokenId",
          "type": "uint256"
        }
      ],
      "name": "safeTransferFrom",
      "outputs": [],
      "stateMutability": "nonpayable",
      "type": "function"
    },
    {
      "inputs": [
        {
          "internalType": "address",
          "name": "from",
          "type": "address"
        },
        {
          "internalType": "address",
          "name": "to",
          "type": "address"
        },
        {
          "internalType": "uint256",
          "name": "tokenId",
          "type": "uint256"
        },
        {
          "internalType": "bytes",
          "name": "_data",
          "type": "bytes"
        }
      ],
      "name": "safeTransferFrom",
      "outputs": [],
      "stateMutability": "nonpayable",
      "type": "function"
    },
    {
      "inputs": [
        {
          "internalType": "address",
          "name": "operator",
          "type": "address"
        },
        {
          "internalType": "bool",
          "name": "approved",
          "type": "bool"
        }
      ],
      "name": "setApprovalForAll",
      "outputs": [],
      "stateMutability": "nonpayable",
      "type": "function"
    },
    {
      "inputs": [
        {
          "internalType": "bytes4",
          "name": "interfaceId",
          "type": "bytes4"
        }
      ],
      "name": "supportsInterface",
      "outputs": [
        {
          "internalType": "bool",
          "name": "",
          "type": "bool"
        }
      ],
      "stateMutability": "view",
      "type": "function"
    },
    {
      "inputs": [],
      "name": "symbol",
      "outputs": [
        {
          "internalType": "string",
          "name": "",
          "type": "string"
        }
      ],
      "stateMutability": "view",
      "type": "function"
    },
    {
      "inputs": [
        {
          "internalType": "uint256",
          "name": "tokenId",
          "type": "uint256"
        }
      ],
      "name": "tokenURI",
      "outputs": [
        {
          "internalType": "string",
          "name": "",
          "type": "string"
        }
      ],
      "stateMutability": "view",
      "type": "function"
    },
    {
      "inputs": [
        {
          "internalType": "address",
          "name": "from",
          "type": "address"
        },
        {
          "internalType": "address",
          "name": "to",
          "type": "address"
        },
        {
          "internalType": "uint256",
          "name": "tokenId",
          "type": "uint256"
        }
      ],
      "name": "transferFrom",
      "outputs": [],
      "stateMutability": "nonpayable",
      "type": "function"
    },
    {
      "inputs": [
        {
          "internalType": "address",
          "name": "newOwner",
          "type": "address"
        }
      ],
      "name": "transferOwnership",
      "outputs": [],
      "stateMutability": "nonpayable",
      "type": "function"
    },
    {
      "inputs": [
        {
          "internalType": "uint256",
          "name": "tokenId",
          "type": "uint256"
        }
      ],
      "name": "water",
      "outputs": [],
      "stateMutability": "nonpayable",
      "type": "function"
    }
  ],
  "bytecode": "0x608060405260006007553480156200001657600080fd5b5060405162003d0738038062003d0783398181016040528101906200003c91906200028a565b818181600090805190602001906200005692919062000168565b5080600190805190602001906200006f92919062000168565b50505062000092620000866200009a60201b60201c565b620000a260201b60201c565b50506200046d565b600033905090565b6000600660009054906101000a900473ffffffffffffffffffffffffffffffffffffffff16905081600660006101000a81548173ffffffffffffffffffffffffffffffffffffffff021916908373ffffffffffffffffffffffffffffffffffffffff1602179055508173ffffffffffffffffffffffffffffffffffffffff168173ffffffffffffffffffffffffffffffffffffffff167f8be0079c531659141344cd1fd0a4f28419497f9722a3daafe3b4186f6b6457e060405160405180910390a35050565b828054620001769062000392565b90600052602060002090601f0160209004810192826200019a5760008555620001e6565b82601f10620001b557805160ff1916838001178555620001e6565b82800160010185558215620001e6579182015b82811115620001e5578251825591602001919060010190620001c8565b5b509050620001f59190620001f9565b5090565b5b8082111562000214576000816000905550600101620001fa565b5090565b60006200022f620002298462000326565b620002fd565b9050828152602081018484840111156200024857600080fd5b620002558482856200035c565b509392505050565b600082601f8301126200026f57600080fd5b81516200028184826020860162000218565b91505092915050565b600080604083850312156200029e57600080fd5b600083015167ffffffffffffffff811115620002b957600080fd5b620002c7858286016200025d565b925050602083015167ffffffffffffffff811115620002e557600080fd5b620002f3858286016200025d565b9150509250929050565b6000620003096200031c565b9050620003178282620003c8565b919050565b6000604051905090565b600067ffffffffffffffff8211156200034457620003436200042d565b5b6200034f826200045c565b9050602081019050919050565b60005b838110156200037c5780820151818401526020810190506200035f565b838111156200038c576000848401525b50505050565b60006002820490506001821680620003ab57607f821691505b60208210811415620003c257620003c1620003fe565b5b50919050565b620003d3826200045c565b810181811067ffffffffffffffff82111715620003f557620003f46200042d565b5b80604052505050565b7f4e487b7100000000000000000000000000000000000000000000000000000000600052602260045260246000fd5b7f4e487b7100000000000000000000000000000000000000000000000000000000600052604160045260246000fd5b6000601f19601f8301169050919050565b61388a806200047d6000396000f3fe608060405234801561001057600080fd5b506004361061012c5760003560e01c80638da5cb5b116100ad578063b88d4fde11610071578063b88d4fde1461032d578063c87b56dd14610349578063e985e9c514610379578063f2fde38b146103a9578063f7376ecc146103c55761012c565b80638da5cb5b146102895780638f93a1c8146102a757806395d89b41146102d7578063a22cb465146102f5578063a7eec44b146103115761012c565b806342842e0e116100f457806342842e0e146101e75780636352211e146102035780636ecd23061461023357806370a082311461024f578063715018a61461027f5761012c565b806301ffc9a71461013157806306fdde0314610161578063081812fc1461017f578063095ea7b3146101af57806323b872dd146101cb575b600080fd5b61014b6004803603810190610146919061252c565b6103f5565b6040516101589190612b2f565b60405180910390f35b6101696104d7565b6040516101769190612b65565b60405180910390f35b6101996004803603810190610194919061257e565b610569565b6040516101a69190612aa6565b60405180910390f35b6101c960048036038101906101c491906124f0565b6105ee565b005b6101e560048036038101906101e091906123ea565b610706565b005b61020160048036038101906101fc91906123ea565b610766565b005b61021d6004803603810190610218919061257e565b610786565b60405161022a9190612aa6565b60405180910390f35b61024d600480360381019061024891906125a7565b610838565b005b61026960048036038101906102649190612385565b610944565b6040516102769190612de7565b60405180910390f35b6102876109fc565b005b610291610a84565b60405161029e9190612aa6565b60405180910390f35b6102c160048036038101906102bc9190612385565b610aae565b6040516102ce9190612b0d565b60405180910390f35b6102df610de8565b6040516102ec9190612b65565b60405180910390f35b61030f600480360381019061030a91906124b4565b610e7a565b005b61032b6004803603810190610326919061257e565b610e90565b005b61034760048036038101906103429190612439565b610fb8565b005b610363600480360381019061035e919061257e565b61101a565b6040516103709190612b65565b60405180910390f35b610393600480360381019061038e91906123ae565b6110c1565b6040516103a09190612b2f565b60405180910390f35b6103c360048036038101906103be9190612385565b611155565b005b6103df60048036038101906103da919061257e565b61124d565b6040516103ec9190612b4a565b60405180910390f35b60007f80ac58cd000000000000000000000000000000000000000000000000000000007bffffffffffffffffffffffffffffffffffffffffffffffffffffffff1916827bffffffffffffffffffffffffffffffffffffffffffffffffffffffff191614806104c057507f5b5e139f000000000000000000000000000000000000000000000000000000007bffffffffffffffffffffffffffffffffffffffffffffffffffffffff1916827bffffffffffffffffffffffffffffffffffffffffffffffffffffffff1916145b806104d057506104cf82611479565b5b9050919050565b6060600080546104e6906130fb565b80601f0160208091040260200160405190810160405280929190818152602001828054610512906130fb565b801561055f5780601f106105345761010080835404028352916020019161055f565b820191906000526020600020905b81548152906001019060200180831161054257829003601f168201915b5050505050905090565b6000610574826114e3565b6105b3576040517f08c379a00000000000000000000000000000000000000000000000000000000081526004016105aa90612ce7565b60405180910390fd5b6004600083815260200190815260200160002060009054906101000a900473ffffffffffffffffffffffffffffffffffffffff169050919050565b60006105f982610786565b90508073ffffffffffffffffffffffffffffffffffffffff168373ffffffffffffffffffffffffffffffffffffffff16141561066a576040517f08c379a000000000000000000000000000000000000000000000000000000000815260040161066190612d87565b60405180910390fd5b8073ffffffffffffffffffffffffffffffffffffffff1661068961154f565b73ffffffffffffffffffffffffffffffffffffffff1614806106b857506106b7816106b261154f565b6110c1565b5b6106f7576040517f08c379a00000000000000000000000000000000000000000000000000000000081526004016106ee90612c67565b60405180910390fd5b6107018383611557565b505050565b61071761071161154f565b82611610565b610756576040517f08c379a000000000000000000000000000000000000000000000000000000000815260040161074d90612dc7565b60405180910390fd5b6107618383836116ee565b505050565b61078183838360405180602001604052806000815250610fb8565b505050565b6000806002600084815260200190815260200160002060009054906101000a900473ffffffffffffffffffffffffffffffffffffffff169050600073ffffffffffffffffffffffffffffffffffffffff168173ffffffffffffffffffffffffffffffffffffffff16141561082f576040517f08c379a000000000000000000000000000000000000000000000000000000000815260040161082690612ca7565b60405180910390fd5b80915050919050565b61084061154f565b73ffffffffffffffffffffffffffffffffffffffff1661085e610a84565b73ffffffffffffffffffffffffffffffffffffffff16146108b4576040517f08c379a00000000000000000000000000000000000000000000000000000000081526004016108ab90612d07565b60405180910390fd5b600060086000600754815260200190815260200160002090506007548160000181905550428160010181905550818160020160006101000a81548160ff021916908360ff16021790555060ff8160020160016101000a81548160ff021916908360ff1602179055506109283360075461194a565b6007600081548092919061093b9061315e565b91905055505050565b60008073ffffffffffffffffffffffffffffffffffffffff168273ffffffffffffffffffffffffffffffffffffffff1614156109b5576040517f08c379a00000000000000000000000000000000000000000000000000000000081526004016109ac90612c87565b60405180910390fd5b600360008373ffffffffffffffffffffffffffffffffffffffff1673ffffffffffffffffffffffffffffffffffffffff168152602001908152602001600020549050919050565b610a0461154f565b73ffffffffffffffffffffffffffffffffffffffff16610a22610a84565b73ffffffffffffffffffffffffffffffffffffffff1614610a78576040517f08c379a0000000000000000000000000000000000000000000000000000000008152600401610a6f90612d07565b60405180910390fd5b610a826000611968565b565b6000600660009054906101000a900473ffffffffffffffffffffffffffffffffffffffff16905090565b60606000610abb83610944565b90506000811415610b4957600067ffffffffffffffff811115610b07577f4e487b7100000000000000000000000000000000000000000000000000000000600052604160045260246000fd5b604051908082528060200260200182016040528015610b4057816020015b610b2d612212565b815260200190600190039081610b255790505b50915050610de3565b60008167ffffffffffffffff811115610b8b577f4e487b7100000000000000000000000000000000000000000000000000000000600052604160045260246000fd5b604051908082528060200260200182016040528015610bc457816020015b610bb1612212565b815260200190600190039081610ba95790505b509050600060075490506000805b82811015610dda578673ffffffffffffffffffffffffffffffffffffffff16610bfa82610786565b73ffffffffffffffffffffffffffffffffffffffff161415610dc75760006008600083815260200190815260200160002060405180608001604052908160008201548152602001600182015481526020016002820160009054906101000a900460ff1660ff1660ff1681526020016002820160019054906101000a900460ff1660ff1660ff16815250509050600060096000848152602001908152602001600020805490509050600080821115610d105760096000858152602001908152602001600020600183610ccb9190612fb5565b81548110610d02577f4e487b7100000000000000000000000000000000000000000000000000000000600052603260045260246000fd5b906000526020600020015490505b6000610d1b8561124d565b90506040518060600160405280858152602001838152602001826002811115610d6d577f4e487b7100000000000000000000000000000000000000000000000000000000600052602160045260246000fd5b815250888781518110610da9577f4e487b7100000000000000000000000000000000000000000000000000000000600052603260045260246000fd5b60200260200101819052508580610dbf9061315e565b965050505050505b8080610dd29061315e565b915050610bd2565b83955050505050505b919050565b606060018054610df7906130fb565b80601f0160208091040260200160405190810160405280929190818152602001828054610e23906130fb565b8015610e705780601f10610e4557610100808354040283529160200191610e70565b820191906000526020600020905b815481529060010190602001808311610e5357829003601f168201915b5050505050905090565b610e8c610e8561154f565b8383611a2e565b5050565b600060086000838152602001908152602001600020905060008160020160019054906101000a900460ff1660ff1611610efe576040517f08c379a0000000000000000000000000000000000000000000000000000000008152600401610ef590612da7565b60405180910390fd5b610f0782610786565b73ffffffffffffffffffffffffffffffffffffffff163373ffffffffffffffffffffffffffffffffffffffff1614610f74576040517f08c379a0000000000000000000000000000000000000000000000000000000008152600401610f6b90612b87565b60405180910390fd5b600060096000848152602001908152602001600020905080429080600181540180825580915050600190039060005260206000200160009091909190915055505050565b610fc9610fc361154f565b83611610565b611008576040517f08c379a0000000000000000000000000000000000000000000000000000000008152600401610fff90612dc7565b60405180910390fd5b61101484848484611b9b565b50505050565b6060611025826114e3565b611064576040517f08c379a000000000000000000000000000000000000000000000000000000000815260040161105b90612d47565b60405180910390fd5b600061106e611bf7565b9050600081511161108e57604051806020016040528060008152506110b9565b8061109884611c0e565b6040516020016110a9929190612a82565b6040516020818303038152906040525b915050919050565b6000600560008473ffffffffffffffffffffffffffffffffffffffff1673ffffffffffffffffffffffffffffffffffffffff16815260200190815260200160002060008373ffffffffffffffffffffffffffffffffffffffff1673ffffffffffffffffffffffffffffffffffffffff16815260200190815260200160002060009054906101000a900460ff16905092915050565b61115d61154f565b73ffffffffffffffffffffffffffffffffffffffff1661117b610a84565b73ffffffffffffffffffffffffffffffffffffffff16146111d1576040517f08c379a00000000000000000000000000000000000000000000000000000000081526004016111c890612d07565b60405180910390fd5b600073ffffffffffffffffffffffffffffffffffffffff168173ffffffffffffffffffffffffffffffffffffffff161415611241576040517f08c379a000000000000000000000000000000000000000000000000000000000815260040161123890612bc7565b60405180910390fd5b61124a81611968565b50565b6000806008600084815260200190815260200160002060405180608001604052908160008201548152602001600182015481526020016002820160009054906101000a900460ff1660ff1660ff1681526020016002820160019054906101000a900460ff1660ff1660ff1681525050905060006009600085815260200190815260200160002080548060200260200160405190810160405280929190818152602001828054801561131d57602002820191906000526020600020905b815481526020019060010190808311611309575b505050505090506000603c806018856040015160ff1661133d9190612f5b565b6113479190612f5b565b6113519190612f5b565b905060008251141561139357600081846020015161136f9190612ed4565b905080421015611386576001945050505050611474565b6000945050505050611474565b600080600083426113a49190612fb5565b9050845192505b6000831115611439576000856001856113c49190612fb5565b815181106113fb577f4e487b7100000000000000000000000000000000000000000000000000000000600052603260045260246000fd5b6020026020010151905081811061141f5782806114179061315e565b935050611425565b50611439565b508280611431906130d1565b9350506113ab565b60018211156114515760029650505050505050611474565b60008214156114695760009650505050505050611474565b600196505050505050505b919050565b60007f01ffc9a7000000000000000000000000000000000000000000000000000000007bffffffffffffffffffffffffffffffffffffffffffffffffffffffff1916827bffffffffffffffffffffffffffffffffffffffffffffffffffffffff1916149050919050565b60008073ffffffffffffffffffffffffffffffffffffffff166002600084815260200190815260200160002060009054906101000a900473ffffffffffffffffffffffffffffffffffffffff1673ffffffffffffffffffffffffffffffffffffffff1614159050919050565b600033905090565b816004600083815260200190815260200160002060006101000a81548173ffffffffffffffffffffffffffffffffffffffff021916908373ffffffffffffffffffffffffffffffffffffffff160217905550808273ffffffffffffffffffffffffffffffffffffffff166115ca83610786565b73ffffffffffffffffffffffffffffffffffffffff167f8c5be1e5ebec7d5bd14f71427d1e84f3dd0314c0f7b2291e5b200ac8c7c3b92560405160405180910390a45050565b600061161b826114e3565b61165a576040517f08c379a000000000000000000000000000000000000000000000000000000000815260040161165190612c47565b60405180910390fd5b600061166583610786565b90508073ffffffffffffffffffffffffffffffffffffffff168473ffffffffffffffffffffffffffffffffffffffff1614806116d457508373ffffffffffffffffffffffffffffffffffffffff166116bc84610569565b73ffffffffffffffffffffffffffffffffffffffff16145b806116e557506116e481856110c1565b5b91505092915050565b8273ffffffffffffffffffffffffffffffffffffffff1661170e82610786565b73ffffffffffffffffffffffffffffffffffffffff1614611764576040517f08c379a000000000000000000000000000000000000000000000000000000000815260040161175b90612d27565b60405180910390fd5b600073ffffffffffffffffffffffffffffffffffffffff168273ffffffffffffffffffffffffffffffffffffffff1614156117d4576040517f08c379a00000000000000000000000000000000000000000000000000000000081526004016117cb90612c07565b60405180910390fd5b6117df838383611dbb565b6117ea600082611557565b6001600360008573ffffffffffffffffffffffffffffffffffffffff1673ffffffffffffffffffffffffffffffffffffffff168152602001908152602001600020600082825461183a9190612fb5565b925050819055506001600360008473ffffffffffffffffffffffffffffffffffffffff1673ffffffffffffffffffffffffffffffffffffffff16815260200190815260200160002060008282546118919190612ed4565b92505081905550816002600083815260200190815260200160002060006101000a81548173ffffffffffffffffffffffffffffffffffffffff021916908373ffffffffffffffffffffffffffffffffffffffff160217905550808273ffffffffffffffffffffffffffffffffffffffff168473ffffffffffffffffffffffffffffffffffffffff167fddf252ad1be2c89b69c2b068fc378daa952ba7f163c4a11628f55a4df523b3ef60405160405180910390a4505050565b611964828260405180602001604052806000815250611e3a565b5050565b6000600660009054906101000a900473ffffffffffffffffffffffffffffffffffffffff16905081600660006101000a81548173ffffffffffffffffffffffffffffffffffffffff021916908373ffffffffffffffffffffffffffffffffffffffff1602179055508173ffffffffffffffffffffffffffffffffffffffff168173ffffffffffffffffffffffffffffffffffffffff167f8be0079c531659141344cd1fd0a4f28419497f9722a3daafe3b4186f6b6457e060405160405180910390a35050565b8173ffffffffffffffffffffffffffffffffffffffff168373ffffffffffffffffffffffffffffffffffffffff161415611a9d576040517f08c379a0000000000000000000000000000000000000000000000000000000008152600401611a9490612c27565b60405180910390fd5b80600560008573ffffffffffffffffffffffffffffffffffffffff1673ffffffffffffffffffffffffffffffffffffffff16815260200190815260200160002060008473ffffffffffffffffffffffffffffffffffffffff1673ffffffffffffffffffffffffffffffffffffffff16815260200190815260200160002060006101000a81548160ff0219169083151502179055508173ffffffffffffffffffffffffffffffffffffffff168373ffffffffffffffffffffffffffffffffffffffff167f17307eab39ab6107e8899845ad3d59bd9653f200f220920489ca2b5937696c3183604051611b8e9190612b2f565b60405180910390a3505050565b611ba68484846116ee565b611bb284848484611e95565b611bf1576040517f08c379a0000000000000000000000000000000000000000000000000000000008152600401611be890612ba7565b60405180910390fd5b50505050565b606060405180602001604052806000815250905090565b60606000821415611c56576040518060400160405280600181526020017f30000000000000000000000000000000000000000000000000000000000000008152509050611db6565b600082905060005b60008214611c88578080611c719061315e565b915050600a82611c819190612f2a565b9150611c5e565b60008167ffffffffffffffff811115611cca577f4e487b7100000000000000000000000000000000000000000000000000000000600052604160045260246000fd5b6040519080825280601f01601f191660200182016040528015611cfc5781602001600182028036833780820191505090505b5090505b60008514611daf57600182611d159190612fb5565b9150600a85611d2491906131a7565b6030611d309190612ed4565b60f81b818381518110611d6c577f4e487b7100000000000000000000000000000000000000000000000000000000600052603260045260246000fd5b60200101907effffffffffffffffffffffffffffffffffffffffffffffffffffffffffffff1916908160001a905350600a85611da89190612f2a565b9450611d00565b8093505050505b919050565b600060086000838152602001908152602001600020905060008160020160019054906101000a900460ff1660ff1611611e29576040517f08c379a0000000000000000000000000000000000000000000000000000000008152600401611e2090612d67565b60405180910390fd5b611e3484848461202c565b50505050565b611e448383612031565b611e516000848484611e95565b611e90576040517f08c379a0000000000000000000000000000000000000000000000000000000008152600401611e8790612ba7565b60405180910390fd5b505050565b6000611eb68473ffffffffffffffffffffffffffffffffffffffff166121ff565b1561201f578373ffffffffffffffffffffffffffffffffffffffff1663150b7a02611edf61154f565b8786866040518563ffffffff1660e01b8152600401611f019493929190612ac1565b602060405180830381600087803b158015611f1b57600080fd5b505af1925050508015611f4c57506040513d601f19601f82011682018060405250810190611f499190612555565b60015b611fcf573d8060008114611f7c576040519150601f19603f3d011682016040523d82523d6000602084013e611f81565b606091505b50600081511415611fc7576040517f08c379a0000000000000000000000000000000000000000000000000000000008152600401611fbe90612ba7565b60405180910390fd5b805181602001fd5b63150b7a0260e01b7bffffffffffffffffffffffffffffffffffffffffffffffffffffffff1916817bffffffffffffffffffffffffffffffffffffffffffffffffffffffff191614915050612024565b600190505b949350505050565b505050565b600073ffffffffffffffffffffffffffffffffffffffff168273ffffffffffffffffffffffffffffffffffffffff1614156120a1576040517f08c379a000000000000000000000000000000000000000000000000000000000815260040161209890612cc7565b60405180910390fd5b6120aa816114e3565b156120ea576040517f08c379a00000000000000000000000000000000000000000000000000000000081526004016120e190612be7565b60405180910390fd5b6120f660008383611dbb565b6001600360008473ffffffffffffffffffffffffffffffffffffffff1673ffffffffffffffffffffffffffffffffffffffff16815260200190815260200160002060008282546121469190612ed4565b92505081905550816002600083815260200190815260200160002060006101000a81548173ffffffffffffffffffffffffffffffffffffffff021916908373ffffffffffffffffffffffffffffffffffffffff160217905550808273ffffffffffffffffffffffffffffffffffffffff16600073ffffffffffffffffffffffffffffffffffffffff167fddf252ad1be2c89b69c2b068fc378daa952ba7f163c4a11628f55a4df523b3ef60405160405180910390a45050565b600080823b905060008111915050919050565b6040518060600160405280612225612271565b8152602001600081526020016000600281111561226b577f4e487b7100000000000000000000000000000000000000000000000000000000600052602160045260246000fd5b81525090565b60405180608001604052806000815260200160008152602001600060ff168152602001600060ff1681525090565b60006122b26122ad84612e27565b612e02565b9050828152602081018484840111156122ca57600080fd5b6122d584828561308f565b509392505050565b6000813590506122ec816137e1565b92915050565b600081359050612301816137f8565b92915050565b6000813590506123168161380f565b92915050565b60008151905061232b8161380f565b92915050565b600082601f83011261234257600080fd5b813561235284826020860161229f565b91505092915050565b60008135905061236a81613826565b92915050565b60008135905061237f8161383d565b92915050565b60006020828403121561239757600080fd5b60006123a5848285016122dd565b91505092915050565b600080604083850312156123c157600080fd5b60006123cf858286016122dd565b92505060206123e0858286016122dd565b9150509250929050565b6000806000606084860312156123ff57600080fd5b600061240d868287016122dd565b935050602061241e868287016122dd565b925050604061242f8682870161235b565b9150509250925092565b6000806000806080858703121561244f57600080fd5b600061245d878288016122dd565b945050602061246e878288016122dd565b935050604061247f8782880161235b565b925050606085013567ffffffffffffffff81111561249c57600080fd5b6124a887828801612331565b91505092959194509250565b600080604083850312156124c757600080fd5b60006124d5858286016122dd565b92505060206124e6858286016122f2565b9150509250929050565b6000806040838503121561250357600080fd5b6000612511858286016122dd565b92505060206125228582860161235b565b9150509250929050565b60006020828403121561253e57600080fd5b600061254c84828501612307565b91505092915050565b60006020828403121561256757600080fd5b60006125758482850161231c565b91505092915050565b60006020828403121561259057600080fd5b600061259e8482850161235b565b91505092915050565b6000602082840312156125b957600080fd5b60006125c784828501612370565b91505092915050565b60006125dc83836129be565b60c08301905092915050565b6125f181612fe9565b82525050565b600061260282612e68565b61260c8185612e96565b935061261783612e58565b8060005b8381101561264857815161262f88826125d0565b975061263a83612e89565b92505060018101905061261b565b5085935050505092915050565b61265e81612ffb565b82525050565b600061266f82612e73565b6126798185612ea7565b935061268981856020860161309e565b612692816132c3565b840191505092915050565b6126a68161307d565b82525050565b6126b58161307d565b82525050565b60006126c682612e7e565b6126d08185612eb8565b93506126e081856020860161309e565b6126e9816132c3565b840191505092915050565b60006126ff82612e7e565b6127098185612ec9565b935061271981856020860161309e565b80840191505092915050565b6000612732602483612eb8565b915061273d826132d4565b604082019050919050565b6000612755603283612eb8565b915061276082613323565b604082019050919050565b6000612778602683612eb8565b915061278382613372565b604082019050919050565b600061279b601c83612eb8565b91506127a6826133c1565b602082019050919050565b60006127be602483612eb8565b91506127c9826133ea565b604082019050919050565b60006127e1601983612eb8565b91506127ec82613439565b602082019050919050565b6000612804602c83612eb8565b915061280f82613462565b604082019050919050565b6000612827603883612eb8565b9150612832826134b1565b604082019050919050565b600061284a602a83612eb8565b915061285582613500565b604082019050919050565b600061286d602983612eb8565b91506128788261354f565b604082019050919050565b6000612890602083612eb8565b915061289b8261359e565b602082019050919050565b60006128b3602c83612eb8565b91506128be826135c7565b604082019050919050565b60006128d6602083612eb8565b91506128e182613616565b602082019050919050565b60006128f9602983612eb8565b91506129048261363f565b604082019050919050565b600061291c602f83612eb8565b91506129278261368e565b604082019050919050565b600061293f601b83612eb8565b915061294a826136dd565b602082019050919050565b6000612962602183612eb8565b915061296d82613706565b604082019050919050565b6000612985601883612eb8565b915061299082613755565b602082019050919050565b60006129a8603183612eb8565b91506129b38261377e565b604082019050919050565b60c0820160008201516129d46000850182612a00565b5060208201516129e76080850182612a55565b5060408201516129fa60a085018261269d565b50505050565b608082016000820151612a166000850182612a55565b506020820151612a296020850182612a55565b506040820151612a3c6040850182612a73565b506060820151612a4f6060850182612a73565b50505050565b612a5e81613066565b82525050565b612a6d81613066565b82525050565b612a7c81613070565b82525050565b6000612a8e82856126f4565b9150612a9a82846126f4565b91508190509392505050565b6000602082019050612abb60008301846125e8565b92915050565b6000608082019050612ad660008301876125e8565b612ae360208301866125e8565b612af06040830185612a64565b8181036060830152612b028184612664565b905095945050505050565b60006020820190508181036000830152612b2781846125f7565b905092915050565b6000602082019050612b446000830184612655565b92915050565b6000602082019050612b5f60008301846126ac565b92915050565b60006020820190508181036000830152612b7f81846126bb565b905092915050565b60006020820190508181036000830152612ba081612725565b9050919050565b60006020820190508181036000830152612bc081612748565b9050919050565b60006020820190508181036000830152612be08161276b565b9050919050565b60006020820190508181036000830152612c008161278e565b9050919050565b60006020820190508181036000830152612c20816127b1565b9050919050565b60006020820190508181036000830152612c40816127d4565b9050919050565b60006020820190508181036000830152612c60816127f7565b9050919050565b60006020820190508181036000830152612c808161281a565b9050919050565b60006020820190508181036000830152612ca08161283d565b9050919050565b60006020820190508181036000830152612cc081612860565b9050919050565b60006020820190508181036000830152612ce081612883565b9050919050565b60006020820190508181036000830152612d00816128a6565b9050919050565b60006020820190508181036000830152612d20816128c9565b9050919050565b60006020820190508181036000830152612d40816128ec565b9050919050565b60006020820190508181036000830152612d608161290f565b9050919050565b60006020820190508181036000830152612d8081612932565b9050919050565b60006020820190508181036000830152612da081612955565b9050919050565b60006020820190508181036000830152612dc081612978565b9050919050565b60006020820190508181036000830152612de08161299b565b9050919050565b6000602082019050612dfc6000830184612a64565b92915050565b6000612e0c612e1d565b9050612e18828261312d565b919050565b6000604051905090565b600067ffffffffffffffff821115612e4257612e41613294565b5b612e4b826132c3565b9050602081019050919050565b6000819050602082019050919050565b600081519050919050565b600081519050919050565b600081519050919050565b6000602082019050919050565b600082825260208201905092915050565b600082825260208201905092915050565b600082825260208201905092915050565b600081905092915050565b6000612edf82613066565b9150612eea83613066565b9250827fffffffffffffffffffffffffffffffffffffffffffffffffffffffffffffffff03821115612f1f57612f1e6131d8565b5b828201905092915050565b6000612f3582613066565b9150612f4083613066565b925082612f5057612f4f613207565b5b828204905092915050565b6000612f6682613066565b9150612f7183613066565b9250817fffffffffffffffffffffffffffffffffffffffffffffffffffffffffffffffff0483118215151615612faa57612fa96131d8565b5b828202905092915050565b6000612fc082613066565b9150612fcb83613066565b925082821015612fde57612fdd6131d8565b5b828203905092915050565b6000612ff482613046565b9050919050565b60008115159050919050565b60007fffffffff0000000000000000000000000000000000000000000000000000000082169050919050565b6000819050613041826137cd565b919050565b600073ffffffffffffffffffffffffffffffffffffffff82169050919050565b6000819050919050565b600060ff82169050919050565b600061308882613033565b9050919050565b82818337600083830152505050565b60005b838110156130bc5780820151818401526020810190506130a1565b838111156130cb576000848401525b50505050565b60006130dc82613066565b915060008214156130f0576130ef6131d8565b5b600182039050919050565b6000600282049050600182168061311357607f821691505b6020821081141561312757613126613265565b5b50919050565b613136826132c3565b810181811067ffffffffffffffff8211171561315557613154613294565b5b80604052505050565b600061316982613066565b91507fffffffffffffffffffffffffffffffffffffffffffffffffffffffffffffffff82141561319c5761319b6131d8565b5b600182019050919050565b60006131b282613066565b91506131bd83613066565b9250826131cd576131cc613207565b5b828206905092915050565b7f4e487b7100000000000000000000000000000000000000000000000000000000600052601160045260246000fd5b7f4e487b7100000000000000000000000000000000000000000000000000000000600052601260045260246000fd5b7f4e487b7100000000000000000000000000000000000000000000000000000000600052602160045260246000fd5b7f4e487b7100000000000000000000000000000000000000000000000000000000600052602260045260246000fd5b7f4e487b7100000000000000000000000000000000000000000000000000000000600052604160045260246000fd5b6000601f19601f8301169050919050565b7f596f752063616e277420776174657220736f6d656f6e6520656c73652773207060008201527f6c616e7400000000000000000000000000000000000000000000000000000000602082015250565b7f4552433732313a207472616e7366657220746f206e6f6e20455243373231526560008201527f63656976657220696d706c656d656e7465720000000000000000000000000000602082015250565b7f4f776e61626c653a206e6577206f776e657220697320746865207a65726f206160008201527f6464726573730000000000000000000000000000000000000000000000000000602082015250565b7f4552433732313a20746f6b656e20616c7265616479206d696e74656400000000600082015250565b7f4552433732313a207472616e7366657220746f20746865207a65726f2061646460008201527f7265737300000000000000000000000000000000000000000000000000000000602082015250565b7f4552433732313a20617070726f766520746f2063616c6c657200000000000000600082015250565b7f4552433732313a206f70657261746f7220717565727920666f72206e6f6e657860008201527f697374656e7420746f6b656e0000000000000000000000000000000000000000602082015250565b7f4552433732313a20617070726f76652063616c6c6572206973206e6f74206f7760008201527f6e6572206e6f7220617070726f76656420666f7220616c6c0000000000000000602082015250565b7f4552433732313a2062616c616e636520717565727920666f7220746865207a6560008201527f726f206164647265737300000000000000000000000000000000000000000000602082015250565b7f4552433732313a206f776e657220717565727920666f72206e6f6e657869737460008201527f656e7420746f6b656e0000000000000000000000000000000000000000000000602082015250565b7f4552433732313a206d696e7420746f20746865207a65726f2061646472657373600082015250565b7f4552433732313a20617070726f76656420717565727920666f72206e6f6e657860008201527f697374656e7420746f6b656e0000000000000000000000000000000000000000602082015250565b7f4f776e61626c653a2063616c6c6572206973206e6f7420746865206f776e6572600082015250565b7f4552433732313a207472616e73666572206f6620746f6b656e2074686174206960008201527f73206e6f74206f776e0000000000000000000000000000000000000000000000602082015250565b7f4552433732314d657461646174613a2055524920717565727920666f72206e6f60008201527f6e6578697374656e7420746f6b656e0000000000000000000000000000000000602082015250565b7f43616e2774207472616e736665722061206465616420706c616e740000000000600082015250565b7f4552433732313a20617070726f76616c20746f2063757272656e74206f776e6560008201527f7200000000000000000000000000000000000000000000000000000000000000602082015250565b7f43616e27742077617465722061206465616420706c616e740000000000000000600082015250565b7f4552433732313a207472616e736665722063616c6c6572206973206e6f74206f60008201527f776e6572206e6f7220617070726f766564000000000000000000000000000000602082015250565b600381106137de576137dd613236565b5b50565b6137ea81612fe9565b81146137f557600080fd5b50565b61380181612ffb565b811461380c57600080fd5b50565b61381881613007565b811461382357600080fd5b50565b61382f81613066565b811461383a57600080fd5b50565b61384681613070565b811461385157600080fd5b5056fea26469706673582212202aca547093d6ced9221846663296a64b55b8612cf327ca286f88f2ab83b1471b64736f6c63430008040033",
  "linkReferences": {},
  "deployedLinkReferences": {}
}