{
  "_format": "hh-sol-artifact-1",
  "contractName": "PlantifulERC721",
  "sourceName": "contracts/PlantifulERC721.sol",
  "abi": [
    {
      "inputs": [
        {
          "internalType": "string",
          "name": "name",
          "type": "string"
        },
        {
          "internalType": "string",
          "name": "symbol",
          "type": "string"
        }
      ],
      "stateMutability": "nonpayable",
      "type": "constructor"
    },
    {
      "anonymous": false,
      "inputs": [
        {
          "indexed": true,
          "internalType": "address",
          "name": "owner",
          "type": "address"
        },
        {
          "indexed": true,
          "internalType": "address",
          "name": "approved",
          "type": "address"
        },
        {
          "indexed": true,
          "internalType": "uint256",
          "name": "tokenId",
          "type": "uint256"
        }
      ],
      "name": "Approval",
      "type": "event"
    },
    {
      "anonymous": false,
      "inputs": [
        {
          "indexed": true,
          "internalType": "address",
          "name": "owner",
          "type": "address"
        },
        {
          "indexed": true,
          "internalType": "address",
          "name": "operator",
          "type": "address"
        },
        {
          "indexed": false,
          "internalType": "bool",
          "name": "approved",
          "type": "bool"
        }
      ],
      "name": "ApprovalForAll",
      "type": "event"
    },
    {
      "anonymous": false,
      "inputs": [
        {
          "indexed": true,
          "internalType": "address",
          "name": "previousOwner",
          "type": "address"
        },
        {
          "indexed": true,
          "internalType": "address",
          "name": "newOwner",
          "type": "address"
        }
      ],
      "name": "OwnershipTransferred",
      "type": "event"
    },
    {
      "anonymous": false,
      "inputs": [
        {
          "indexed": true,
          "internalType": "address",
          "name": "from",
          "type": "address"
        },
        {
          "indexed": true,
          "internalType": "address",
          "name": "to",
          "type": "address"
        },
        {
          "indexed": true,
          "internalType": "uint256",
          "name": "tokenId",
          "type": "uint256"
        }
      ],
      "name": "Transfer",
      "type": "event"
    },
    {
      "inputs": [
        {
          "internalType": "address",
          "name": "to",
          "type": "address"
        },
        {
          "internalType": "uint256",
          "name": "tokenId",
          "type": "uint256"
        }
      ],
      "name": "approve",
      "outputs": [],
      "stateMutability": "nonpayable",
      "type": "function"
    },
    {
      "inputs": [
        {
          "internalType": "address",
          "name": "owner",
          "type": "address"
        }
      ],
      "name": "balanceOf",
      "outputs": [
        {
          "internalType": "uint256",
          "name": "",
          "type": "uint256"
        }
      ],
      "stateMutability": "view",
      "type": "function"
    },
    {
      "inputs": [
        {
          "internalType": "uint256",
          "name": "tokenId",
          "type": "uint256"
        }
      ],
      "name": "getApproved",
      "outputs": [
        {
          "internalType": "address",
          "name": "",
          "type": "address"
        }
      ],
      "stateMutability": "view",
      "type": "function"
    },
    {
      "inputs": [
        {
          "internalType": "address",
          "name": "user",
          "type": "address"
        }
      ],
      "name": "getUsersPlants",
      "outputs": [
        {
          "components": [
            {
              "internalType": "uint256",
              "name": "id",
              "type": "uint256"
            },
            {
              "internalType": "uint256",
              "name": "generatedAt",
              "type": "uint256"
            },
            {
              "internalType": "uint256",
              "name": "lastWateredAt",
              "type": "uint256"
            },
            {
              "internalType": "uint256",
              "name": "droughtResistance",
              "type": "uint256"
            },
            {
              "internalType": "enum PlantifulERC721.PlantKind",
              "name": "kind",
              "type": "uint8"
            }
          ],
          "internalType": "struct PlantifulERC721.Plant[]",
          "name": "",
          "type": "tuple[]"
        }
      ],
      "stateMutability": "view",
      "type": "function"
    },
    {
      "inputs": [
        {
          "internalType": "address",
          "name": "owner",
          "type": "address"
        },
        {
          "internalType": "address",
          "name": "operator",
          "type": "address"
        }
      ],
      "name": "isApprovedForAll",
      "outputs": [
        {
          "internalType": "bool",
          "name": "",
          "type": "bool"
        }
      ],
      "stateMutability": "view",
      "type": "function"
    },
    {
      "inputs": [
        {
          "internalType": "uint256",
          "name": "droughtResistance",
          "type": "uint256"
        },
        {
          "internalType": "enum PlantifulERC721.PlantKind",
          "name": "kind",
          "type": "uint8"
        }
      ],
      "name": "mint",
      "outputs": [],
      "stateMutability": "nonpayable",
      "type": "function"
    },
    {
      "inputs": [],
      "name": "name",
      "outputs": [
        {
          "internalType": "string",
          "name": "",
          "type": "string"
        }
      ],
      "stateMutability": "view",
      "type": "function"
    },
    {
      "inputs": [],
      "name": "owner",
      "outputs": [
        {
          "internalType": "address",
          "name": "",
          "type": "address"
        }
      ],
      "stateMutability": "view",
      "type": "function"
    },
    {
      "inputs": [
        {
          "internalType": "uint256",
          "name": "tokenId",
          "type": "uint256"
        }
      ],
      "name": "ownerOf",
      "outputs": [
        {
          "internalType": "address",
          "name": "",
          "type": "address"
        }
      ],
      "stateMutability": "view",
      "type": "function"
    },
    {
      "inputs": [],
      "name": "renounceOwnership",
      "outputs": [],
      "stateMutability": "nonpayable",
      "type": "function"
    },
    {
      "inputs": [
        {
          "internalType": "address",
          "name": "from",
          "type": "address"
        },
        {
          "internalType": "address",
          "name": "to",
          "type": "address"
        },
        {
          "internalType": "uint256",
          "name": "tokenId",
          "type": "uint256"
        }
      ],
      "name": "safeTransferFrom",
      "outputs": [],
      "stateMutability": "nonpayable",
      "type": "function"
    },
    {
      "inputs": [
        {
          "internalType": "address",
          "name": "from",
          "type": "address"
        },
        {
          "internalType": "address",
          "name": "to",
          "type": "address"
        },
        {
          "internalType": "uint256",
          "name": "tokenId",
          "type": "uint256"
        },
        {
          "internalType": "bytes",
          "name": "_data",
          "type": "bytes"
        }
      ],
      "name": "safeTransferFrom",
      "outputs": [],
      "stateMutability": "nonpayable",
      "type": "function"
    },
    {
      "inputs": [
        {
          "internalType": "address",
          "name": "operator",
          "type": "address"
        },
        {
          "internalType": "bool",
          "name": "approved",
          "type": "bool"
        }
      ],
      "name": "setApprovalForAll",
      "outputs": [],
      "stateMutability": "nonpayable",
      "type": "function"
    },
    {
      "inputs": [
        {
          "internalType": "bytes4",
          "name": "interfaceId",
          "type": "bytes4"
        }
      ],
      "name": "supportsInterface",
      "outputs": [
        {
          "internalType": "bool",
          "name": "",
          "type": "bool"
        }
      ],
      "stateMutability": "view",
      "type": "function"
    },
    {
      "inputs": [],
      "name": "symbol",
      "outputs": [
        {
          "internalType": "string",
          "name": "",
          "type": "string"
        }
      ],
      "stateMutability": "view",
      "type": "function"
    },
    {
      "inputs": [
        {
          "internalType": "uint256",
          "name": "tokenId",
          "type": "uint256"
        }
      ],
      "name": "tokenURI",
      "outputs": [
        {
          "internalType": "string",
          "name": "",
          "type": "string"
        }
      ],
      "stateMutability": "view",
      "type": "function"
    },
    {
      "inputs": [
        {
          "internalType": "address",
          "name": "from",
          "type": "address"
        },
        {
          "internalType": "address",
          "name": "to",
          "type": "address"
        },
        {
          "internalType": "uint256",
          "name": "tokenId",
          "type": "uint256"
        }
      ],
      "name": "transferFrom",
      "outputs": [],
      "stateMutability": "nonpayable",
      "type": "function"
    },
    {
      "inputs": [
        {
          "internalType": "address",
          "name": "newOwner",
          "type": "address"
        }
      ],
      "name": "transferOwnership",
      "outputs": [],
      "stateMutability": "nonpayable",
      "type": "function"
    },
    {
      "inputs": [
        {
          "internalType": "uint256",
          "name": "tokenId",
          "type": "uint256"
        }
      ],
      "name": "water",
      "outputs": [],
      "stateMutability": "nonpayable",
      "type": "function"
    }
  ],
  "bytecode": "0x608060405260006007553480156200001657600080fd5b50604051620039503803806200395083398181016040528101906200003c91906200028a565b818181600090805190602001906200005692919062000168565b5080600190805190602001906200006f92919062000168565b50505062000092620000866200009a60201b60201c565b620000a260201b60201c565b50506200046d565b600033905090565b6000600660009054906101000a900473ffffffffffffffffffffffffffffffffffffffff16905081600660006101000a81548173ffffffffffffffffffffffffffffffffffffffff021916908373ffffffffffffffffffffffffffffffffffffffff1602179055508173ffffffffffffffffffffffffffffffffffffffff168173ffffffffffffffffffffffffffffffffffffffff167f8be0079c531659141344cd1fd0a4f28419497f9722a3daafe3b4186f6b6457e060405160405180910390a35050565b828054620001769062000392565b90600052602060002090601f0160209004810192826200019a5760008555620001e6565b82601f10620001b557805160ff1916838001178555620001e6565b82800160010185558215620001e6579182015b82811115620001e5578251825591602001919060010190620001c8565b5b509050620001f59190620001f9565b5090565b5b8082111562000214576000816000905550600101620001fa565b5090565b60006200022f620002298462000326565b620002fd565b9050828152602081018484840111156200024857600080fd5b620002558482856200035c565b509392505050565b600082601f8301126200026f57600080fd5b81516200028184826020860162000218565b91505092915050565b600080604083850312156200029e57600080fd5b600083015167ffffffffffffffff811115620002b957600080fd5b620002c7858286016200025d565b925050602083015167ffffffffffffffff811115620002e557600080fd5b620002f3858286016200025d565b9150509250929050565b6000620003096200031c565b9050620003178282620003c8565b919050565b6000604051905090565b600067ffffffffffffffff8211156200034457620003436200042d565b5b6200034f826200045c565b9050602081019050919050565b60005b838110156200037c5780820151818401526020810190506200035f565b838111156200038c576000848401525b50505050565b60006002820490506001821680620003ab57607f821691505b60208210811415620003c257620003c1620003fe565b5b50919050565b620003d3826200045c565b810181811067ffffffffffffffff82111715620003f557620003f46200042d565b5b80604052505050565b7f4e487b7100000000000000000000000000000000000000000000000000000000600052602260045260246000fd5b7f4e487b7100000000000000000000000000000000000000000000000000000000600052604160045260246000fd5b6000601f19601f8301169050919050565b6134d3806200047d6000396000f3fe608060405234801561001057600080fd5b50600436106101215760003560e01c80638da5cb5b116100ad578063b88d4fde11610071578063b88d4fde14610306578063c87b56dd14610322578063e985e9c514610352578063f2fde38b14610382578063fb2f1ffb1461039e57610121565b80638da5cb5b146102625780638f93a1c81461028057806395d89b41146102b0578063a22cb465146102ce578063a7eec44b146102ea57610121565b806323b872dd116100f457806323b872dd146101c057806342842e0e146101dc5780636352211e146101f857806370a0823114610228578063715018a61461025857610121565b806301ffc9a71461012657806306fdde0314610156578063081812fc14610174578063095ea7b3146101a4575b600080fd5b610140600480360381019061013b9190612262565b6103ba565b60405161014d919061282b565b60405180910390f35b61015e61049c565b60405161016b9190612846565b60405180910390f35b61018e600480360381019061018991906122b4565b61052e565b60405161019b91906127a2565b60405180910390f35b6101be60048036038101906101b99190612226565b6105b3565b005b6101da60048036038101906101d59190612120565b6106cb565b005b6101f660048036038101906101f19190612120565b61072b565b005b610212600480360381019061020d91906122b4565b61074b565b60405161021f91906127a2565b60405180910390f35b610242600480360381019061023d91906120bb565b6107fd565b60405161024f9190612ac8565b60405180910390f35b6102606108b5565b005b61026a61093d565b60405161027791906127a2565b60405180910390f35b61029a600480360381019061029591906120bb565b610967565b6040516102a79190612809565b60405180910390f35b6102b8610c10565b6040516102c59190612846565b60405180910390f35b6102e860048036038101906102e391906121ea565b610ca2565b005b61030460048036038101906102ff91906122b4565b610cb8565b005b610320600480360381019061031b919061216f565b610da7565b005b61033c600480360381019061033791906122b4565b610e09565b6040516103499190612846565b60405180910390f35b61036c600480360381019061036791906120e4565b610eb0565b604051610379919061282b565b60405180910390f35b61039c600480360381019061039791906120bb565b610f44565b005b6103b860048036038101906103b391906122dd565b61103c565b005b60007f80ac58cd000000000000000000000000000000000000000000000000000000007bffffffffffffffffffffffffffffffffffffffffffffffffffffffff1916827bffffffffffffffffffffffffffffffffffffffffffffffffffffffff1916148061048557507f5b5e139f000000000000000000000000000000000000000000000000000000007bffffffffffffffffffffffffffffffffffffffffffffffffffffffff1916827bffffffffffffffffffffffffffffffffffffffffffffffffffffffff1916145b806104955750610494826111d7565b5b9050919050565b6060600080546104ab90612d4b565b80601f01602080910402602001604051908101604052809291908181526020018280546104d790612d4b565b80156105245780601f106104f957610100808354040283529160200191610524565b820191906000526020600020905b81548152906001019060200180831161050757829003601f168201915b5050505050905090565b600061053982611241565b610578576040517f08c379a000000000000000000000000000000000000000000000000000000000815260040161056f906129c8565b60405180910390fd5b6004600083815260200190815260200160002060009054906101000a900473ffffffffffffffffffffffffffffffffffffffff169050919050565b60006105be8261074b565b90508073ffffffffffffffffffffffffffffffffffffffff168373ffffffffffffffffffffffffffffffffffffffff16141561062f576040517f08c379a000000000000000000000000000000000000000000000000000000000815260040161062690612a68565b60405180910390fd5b8073ffffffffffffffffffffffffffffffffffffffff1661064e6112ad565b73ffffffffffffffffffffffffffffffffffffffff16148061067d575061067c816106776112ad565b610eb0565b5b6106bc576040517f08c379a00000000000000000000000000000000000000000000000000000000081526004016106b390612948565b60405180910390fd5b6106c683836112b5565b505050565b6106dc6106d66112ad565b8261136e565b61071b576040517f08c379a000000000000000000000000000000000000000000000000000000000815260040161071290612aa8565b60405180910390fd5b61072683838361144c565b505050565b61074683838360405180602001604052806000815250610da7565b505050565b6000806002600084815260200190815260200160002060009054906101000a900473ffffffffffffffffffffffffffffffffffffffff169050600073ffffffffffffffffffffffffffffffffffffffff168173ffffffffffffffffffffffffffffffffffffffff1614156107f4576040517f08c379a00000000000000000000000000000000000000000000000000000000081526004016107eb90612988565b60405180910390fd5b80915050919050565b60008073ffffffffffffffffffffffffffffffffffffffff168273ffffffffffffffffffffffffffffffffffffffff16141561086e576040517f08c379a000000000000000000000000000000000000000000000000000000000815260040161086590612968565b60405180910390fd5b600360008373ffffffffffffffffffffffffffffffffffffffff1673ffffffffffffffffffffffffffffffffffffffff168152602001908152602001600020549050919050565b6108bd6112ad565b73ffffffffffffffffffffffffffffffffffffffff166108db61093d565b73ffffffffffffffffffffffffffffffffffffffff1614610931576040517f08c379a0000000000000000000000000000000000000000000000000000000008152600401610928906129e8565b60405180910390fd5b61093b60006116a8565b565b6000600660009054906101000a900473ffffffffffffffffffffffffffffffffffffffff16905090565b60606000610974836107fd565b90506000811415610a0257600067ffffffffffffffff8111156109c0577f4e487b7100000000000000000000000000000000000000000000000000000000600052604160045260246000fd5b6040519080825280602002602001820160405280156109f957816020015b6109e6611f6e565b8152602001906001900390816109de5790505b50915050610c0b565b60008167ffffffffffffffff811115610a44577f4e487b7100000000000000000000000000000000000000000000000000000000600052604160045260246000fd5b604051908082528060200260200182016040528015610a7d57816020015b610a6a611f6e565b815260200190600190039081610a625790505b509050600060075490506000805b82811015610c02578673ffffffffffffffffffffffffffffffffffffffff16610ab38261074b565b73ffffffffffffffffffffffffffffffffffffffff161415610bef57600860008281526020019081526020016000206040518060a0016040529081600082015481526020016001820154815260200160028201548152602001600382015481526020016004820160009054906101000a900460ff166003811115610b60577f4e487b7100000000000000000000000000000000000000000000000000000000600052602160045260246000fd5b6003811115610b98577f4e487b7100000000000000000000000000000000000000000000000000000000600052602160045260246000fd5b81525050848381518110610bd5577f4e487b7100000000000000000000000000000000000000000000000000000000600052603260045260246000fd5b60200260200101819052508180610beb90612dae565b9250505b8080610bfa90612dae565b915050610a8b565b83955050505050505b919050565b606060018054610c1f90612d4b565b80601f0160208091040260200160405190810160405280929190818152602001828054610c4b90612d4b565b8015610c985780601f10610c6d57610100808354040283529160200191610c98565b820191906000526020600020905b815481529060010190602001808311610c7b57829003601f168201915b5050505050905090565b610cb4610cad6112ad565b838361176e565b5050565b60006008600083815260200190815260200160002090504281600301548260020154610ce49190612bb5565b11610d24576040517f08c379a0000000000000000000000000000000000000000000000000000000008152600401610d1b90612a88565b60405180910390fd5b610d2d8261074b565b73ffffffffffffffffffffffffffffffffffffffff163373ffffffffffffffffffffffffffffffffffffffff1614610d9a576040517f08c379a0000000000000000000000000000000000000000000000000000000008152600401610d9190612868565b60405180910390fd5b4281600201819055505050565b610db8610db26112ad565b8361136e565b610df7576040517f08c379a0000000000000000000000000000000000000000000000000000000008152600401610dee90612aa8565b60405180910390fd5b610e03848484846118db565b50505050565b6060610e1482611241565b610e53576040517f08c379a0000000000000000000000000000000000000000000000000000000008152600401610e4a90612a28565b60405180910390fd5b6000610e5d611937565b90506000815111610e7d5760405180602001604052806000815250610ea8565b80610e878461194e565b604051602001610e9892919061277e565b6040516020818303038152906040525b915050919050565b6000600560008473ffffffffffffffffffffffffffffffffffffffff1673ffffffffffffffffffffffffffffffffffffffff16815260200190815260200160002060008373ffffffffffffffffffffffffffffffffffffffff1673ffffffffffffffffffffffffffffffffffffffff16815260200190815260200160002060009054906101000a900460ff16905092915050565b610f4c6112ad565b73ffffffffffffffffffffffffffffffffffffffff16610f6a61093d565b73ffffffffffffffffffffffffffffffffffffffff1614610fc0576040517f08c379a0000000000000000000000000000000000000000000000000000000008152600401610fb7906129e8565b60405180910390fd5b600073ffffffffffffffffffffffffffffffffffffffff168173ffffffffffffffffffffffffffffffffffffffff161415611030576040517f08c379a0000000000000000000000000000000000000000000000000000000008152600401611027906128a8565b60405180910390fd5b611039816116a8565b50565b6110446112ad565b73ffffffffffffffffffffffffffffffffffffffff1661106261093d565b73ffffffffffffffffffffffffffffffffffffffff16146110b8576040517f08c379a00000000000000000000000000000000000000000000000000000000081526004016110af906129e8565b60405180910390fd5b6040518060a001604052806007548152602001428152602001428152602001838152602001826003811115611116577f4e487b7100000000000000000000000000000000000000000000000000000000600052602160045260246000fd5b8152506008600060075481526020019081526020016000206000820151816000015560208201518160010155604082015181600201556060820151816003015560808201518160040160006101000a81548160ff021916908360038111156111a7577f4e487b7100000000000000000000000000000000000000000000000000000000600052602160045260246000fd5b02179055509050506111bb33600754611afb565b600760008154809291906111ce90612dae565b91905055505050565b60007f01ffc9a7000000000000000000000000000000000000000000000000000000007bffffffffffffffffffffffffffffffffffffffffffffffffffffffff1916827bffffffffffffffffffffffffffffffffffffffffffffffffffffffff1916149050919050565b60008073ffffffffffffffffffffffffffffffffffffffff166002600084815260200190815260200160002060009054906101000a900473ffffffffffffffffffffffffffffffffffffffff1673ffffffffffffffffffffffffffffffffffffffff1614159050919050565b600033905090565b816004600083815260200190815260200160002060006101000a81548173ffffffffffffffffffffffffffffffffffffffff021916908373ffffffffffffffffffffffffffffffffffffffff160217905550808273ffffffffffffffffffffffffffffffffffffffff166113288361074b565b73ffffffffffffffffffffffffffffffffffffffff167f8c5be1e5ebec7d5bd14f71427d1e84f3dd0314c0f7b2291e5b200ac8c7c3b92560405160405180910390a45050565b600061137982611241565b6113b8576040517f08c379a00000000000000000000000000000000000000000000000000000000081526004016113af90612928565b60405180910390fd5b60006113c38361074b565b90508073ffffffffffffffffffffffffffffffffffffffff168473ffffffffffffffffffffffffffffffffffffffff16148061143257508373ffffffffffffffffffffffffffffffffffffffff1661141a8461052e565b73ffffffffffffffffffffffffffffffffffffffff16145b8061144357506114428185610eb0565b5b91505092915050565b8273ffffffffffffffffffffffffffffffffffffffff1661146c8261074b565b73ffffffffffffffffffffffffffffffffffffffff16146114c2576040517f08c379a00000000000000000000000000000000000000000000000000000000081526004016114b990612a08565b60405180910390fd5b600073ffffffffffffffffffffffffffffffffffffffff168273ffffffffffffffffffffffffffffffffffffffff161415611532576040517f08c379a0000000000000000000000000000000000000000000000000000000008152600401611529906128e8565b60405180910390fd5b61153d838383611b19565b6115486000826112b5565b6001600360008573ffffffffffffffffffffffffffffffffffffffff1673ffffffffffffffffffffffffffffffffffffffff16815260200190815260200160002060008282546115989190612c3c565b925050819055506001600360008473ffffffffffffffffffffffffffffffffffffffff1673ffffffffffffffffffffffffffffffffffffffff16815260200190815260200160002060008282546115ef9190612bb5565b92505081905550816002600083815260200190815260200160002060006101000a81548173ffffffffffffffffffffffffffffffffffffffff021916908373ffffffffffffffffffffffffffffffffffffffff160217905550808273ffffffffffffffffffffffffffffffffffffffff168473ffffffffffffffffffffffffffffffffffffffff167fddf252ad1be2c89b69c2b068fc378daa952ba7f163c4a11628f55a4df523b3ef60405160405180910390a4505050565b6000600660009054906101000a900473ffffffffffffffffffffffffffffffffffffffff16905081600660006101000a81548173ffffffffffffffffffffffffffffffffffffffff021916908373ffffffffffffffffffffffffffffffffffffffff1602179055508173ffffffffffffffffffffffffffffffffffffffff168173ffffffffffffffffffffffffffffffffffffffff167f8be0079c531659141344cd1fd0a4f28419497f9722a3daafe3b4186f6b6457e060405160405180910390a35050565b8173ffffffffffffffffffffffffffffffffffffffff168373ffffffffffffffffffffffffffffffffffffffff1614156117dd576040517f08c379a00000000000000000000000000000000000000000000000000000000081526004016117d490612908565b60405180910390fd5b80600560008573ffffffffffffffffffffffffffffffffffffffff1673ffffffffffffffffffffffffffffffffffffffff16815260200190815260200160002060008473ffffffffffffffffffffffffffffffffffffffff1673ffffffffffffffffffffffffffffffffffffffff16815260200190815260200160002060006101000a81548160ff0219169083151502179055508173ffffffffffffffffffffffffffffffffffffffff168373ffffffffffffffffffffffffffffffffffffffff167f17307eab39ab6107e8899845ad3d59bd9653f200f220920489ca2b5937696c31836040516118ce919061282b565b60405180910390a3505050565b6118e684848461144c565b6118f284848484611b96565b611931576040517f08c379a000000000000000000000000000000000000000000000000000000000815260040161192890612888565b60405180910390fd5b50505050565b606060405180602001604052806000815250905090565b60606000821415611996576040518060400160405280600181526020017f30000000000000000000000000000000000000000000000000000000000000008152509050611af6565b600082905060005b600082146119c85780806119b190612dae565b915050600a826119c19190612c0b565b915061199e565b60008167ffffffffffffffff811115611a0a577f4e487b7100000000000000000000000000000000000000000000000000000000600052604160045260246000fd5b6040519080825280601f01601f191660200182016040528015611a3c5781602001600182028036833780820191505090505b5090505b60008514611aef57600182611a559190612c3c565b9150600a85611a649190612df7565b6030611a709190612bb5565b60f81b818381518110611aac577f4e487b7100000000000000000000000000000000000000000000000000000000600052603260045260246000fd5b60200101907effffffffffffffffffffffffffffffffffffffffffffffffffffffffffffff1916908160001a905350600a85611ae89190612c0b565b9450611a40565b8093505050505b919050565b611b15828260405180602001604052806000815250611d2d565b5050565b60006008600083815260200190815260200160002090504281600301548260020154611b459190612bb5565b11611b85576040517f08c379a0000000000000000000000000000000000000000000000000000000008152600401611b7c90612a48565b60405180910390fd5b611b90848484611d88565b50505050565b6000611bb78473ffffffffffffffffffffffffffffffffffffffff16611d8d565b15611d20578373ffffffffffffffffffffffffffffffffffffffff1663150b7a02611be06112ad565b8786866040518563ffffffff1660e01b8152600401611c0294939291906127bd565b602060405180830381600087803b158015611c1c57600080fd5b505af1925050508015611c4d57506040513d601f19601f82011682018060405250810190611c4a919061228b565b60015b611cd0573d8060008114611c7d576040519150601f19603f3d011682016040523d82523d6000602084013e611c82565b606091505b50600081511415611cc8576040517f08c379a0000000000000000000000000000000000000000000000000000000008152600401611cbf90612888565b60405180910390fd5b805181602001fd5b63150b7a0260e01b7bffffffffffffffffffffffffffffffffffffffffffffffffffffffff1916817bffffffffffffffffffffffffffffffffffffffffffffffffffffffff191614915050611d25565b600190505b949350505050565b611d378383611da0565b611d446000848484611b96565b611d83576040517f08c379a0000000000000000000000000000000000000000000000000000000008152600401611d7a90612888565b60405180910390fd5b505050565b505050565b600080823b905060008111915050919050565b600073ffffffffffffffffffffffffffffffffffffffff168273ffffffffffffffffffffffffffffffffffffffff161415611e10576040517f08c379a0000000000000000000000000000000000000000000000000000000008152600401611e07906129a8565b60405180910390fd5b611e1981611241565b15611e59576040517f08c379a0000000000000000000000000000000000000000000000000000000008152600401611e50906128c8565b60405180910390fd5b611e6560008383611b19565b6001600360008473ffffffffffffffffffffffffffffffffffffffff1673ffffffffffffffffffffffffffffffffffffffff1681526020019081526020016000206000828254611eb59190612bb5565b92505081905550816002600083815260200190815260200160002060006101000a81548173ffffffffffffffffffffffffffffffffffffffff021916908373ffffffffffffffffffffffffffffffffffffffff160217905550808273ffffffffffffffffffffffffffffffffffffffff16600073ffffffffffffffffffffffffffffffffffffffff167fddf252ad1be2c89b69c2b068fc378daa952ba7f163c4a11628f55a4df523b3ef60405160405180910390a45050565b6040518060a001604052806000815260200160008152602001600081526020016000815260200160006003811115611fcf577f4e487b7100000000000000000000000000000000000000000000000000000000600052602160045260246000fd5b81525090565b6000611fe8611fe384612b08565b612ae3565b90508281526020810184848401111561200057600080fd5b61200b848285612d09565b509392505050565b60008135905061202281613431565b92915050565b60008135905061203781613448565b92915050565b60008135905061204c8161345f565b92915050565b6000815190506120618161345f565b92915050565b600082601f83011261207857600080fd5b8135612088848260208601611fd5565b91505092915050565b6000813590506120a081613476565b92915050565b6000813590506120b581613486565b92915050565b6000602082840312156120cd57600080fd5b60006120db84828501612013565b91505092915050565b600080604083850312156120f757600080fd5b600061210585828601612013565b925050602061211685828601612013565b9150509250929050565b60008060006060848603121561213557600080fd5b600061214386828701612013565b935050602061215486828701612013565b9250506040612165868287016120a6565b9150509250925092565b6000806000806080858703121561218557600080fd5b600061219387828801612013565b94505060206121a487828801612013565b93505060406121b5878288016120a6565b925050606085013567ffffffffffffffff8111156121d257600080fd5b6121de87828801612067565b91505092959194509250565b600080604083850312156121fd57600080fd5b600061220b85828601612013565b925050602061221c85828601612028565b9150509250929050565b6000806040838503121561223957600080fd5b600061224785828601612013565b9250506020612258858286016120a6565b9150509250929050565b60006020828403121561227457600080fd5b60006122828482850161203d565b91505092915050565b60006020828403121561229d57600080fd5b60006122ab84828501612052565b91505092915050565b6000602082840312156122c657600080fd5b60006122d4848285016120a6565b91505092915050565b600080604083850312156122f057600080fd5b60006122fe858286016120a6565b925050602061230f85828601612091565b9150509250929050565b600061232583836126f8565b60a08301905092915050565b61233a81612c70565b82525050565b600061234b82612b49565b6123558185612b77565b935061236083612b39565b8060005b838110156123915781516123788882612319565b975061238383612b6a565b925050600181019050612364565b5085935050505092915050565b6123a781612c82565b82525050565b60006123b882612b54565b6123c28185612b88565b93506123d2818560208601612d18565b6123db81612f13565b840191505092915050565b6123ef81612cf7565b82525050565b600061240082612b5f565b61240a8185612b99565b935061241a818560208601612d18565b61242381612f13565b840191505092915050565b600061243982612b5f565b6124438185612baa565b9350612453818560208601612d18565b80840191505092915050565b600061246c602483612b99565b915061247782612f24565b604082019050919050565b600061248f603283612b99565b915061249a82612f73565b604082019050919050565b60006124b2602683612b99565b91506124bd82612fc2565b604082019050919050565b60006124d5601c83612b99565b91506124e082613011565b602082019050919050565b60006124f8602483612b99565b91506125038261303a565b604082019050919050565b600061251b601983612b99565b915061252682613089565b602082019050919050565b600061253e602c83612b99565b9150612549826130b2565b604082019050919050565b6000612561603883612b99565b915061256c82613101565b604082019050919050565b6000612584602a83612b99565b915061258f82613150565b604082019050919050565b60006125a7602983612b99565b91506125b28261319f565b604082019050919050565b60006125ca602083612b99565b91506125d5826131ee565b602082019050919050565b60006125ed602c83612b99565b91506125f882613217565b604082019050919050565b6000612610602083612b99565b915061261b82613266565b602082019050919050565b6000612633602983612b99565b915061263e8261328f565b604082019050919050565b6000612656602f83612b99565b9150612661826132de565b604082019050919050565b6000612679601b83612b99565b91506126848261332d565b602082019050919050565b600061269c602183612b99565b91506126a782613356565b604082019050919050565b60006126bf601883612b99565b91506126ca826133a5565b602082019050919050565b60006126e2603183612b99565b91506126ed826133ce565b604082019050919050565b60a08201600082015161270e6000850182612760565b5060208201516127216020850182612760565b5060408201516127346040850182612760565b5060608201516127476060850182612760565b50608082015161275a60808501826123e6565b50505050565b61276981612ced565b82525050565b61277881612ced565b82525050565b600061278a828561242e565b9150612796828461242e565b91508190509392505050565b60006020820190506127b76000830184612331565b92915050565b60006080820190506127d26000830187612331565b6127df6020830186612331565b6127ec604083018561276f565b81810360608301526127fe81846123ad565b905095945050505050565b600060208201905081810360008301526128238184612340565b905092915050565b6000602082019050612840600083018461239e565b92915050565b6000602082019050818103600083015261286081846123f5565b905092915050565b600060208201905081810360008301526128818161245f565b9050919050565b600060208201905081810360008301526128a181612482565b9050919050565b600060208201905081810360008301526128c1816124a5565b9050919050565b600060208201905081810360008301526128e1816124c8565b9050919050565b60006020820190508181036000830152612901816124eb565b9050919050565b600060208201905081810360008301526129218161250e565b9050919050565b6000602082019050818103600083015261294181612531565b9050919050565b6000602082019050818103600083015261296181612554565b9050919050565b6000602082019050818103600083015261298181612577565b9050919050565b600060208201905081810360008301526129a18161259a565b9050919050565b600060208201905081810360008301526129c1816125bd565b9050919050565b600060208201905081810360008301526129e1816125e0565b9050919050565b60006020820190508181036000830152612a0181612603565b9050919050565b60006020820190508181036000830152612a2181612626565b9050919050565b60006020820190508181036000830152612a4181612649565b9050919050565b60006020820190508181036000830152612a618161266c565b9050919050565b60006020820190508181036000830152612a818161268f565b9050919050565b60006020820190508181036000830152612aa1816126b2565b9050919050565b60006020820190508181036000830152612ac1816126d5565b9050919050565b6000602082019050612add600083018461276f565b92915050565b6000612aed612afe565b9050612af98282612d7d565b919050565b6000604051905090565b600067ffffffffffffffff821115612b2357612b22612ee4565b5b612b2c82612f13565b9050602081019050919050565b6000819050602082019050919050565b600081519050919050565b600081519050919050565b600081519050919050565b6000602082019050919050565b600082825260208201905092915050565b600082825260208201905092915050565b600082825260208201905092915050565b600081905092915050565b6000612bc082612ced565b9150612bcb83612ced565b9250827fffffffffffffffffffffffffffffffffffffffffffffffffffffffffffffffff03821115612c0057612bff612e28565b5b828201905092915050565b6000612c1682612ced565b9150612c2183612ced565b925082612c3157612c30612e57565b5b828204905092915050565b6000612c4782612ced565b9150612c5283612ced565b925082821015612c6557612c64612e28565b5b828203905092915050565b6000612c7b82612ccd565b9050919050565b60008115159050919050565b60007fffffffff0000000000000000000000000000000000000000000000000000000082169050919050565b6000819050612cc88261341d565b919050565b600073ffffffffffffffffffffffffffffffffffffffff82169050919050565b6000819050919050565b6000612d0282612cba565b9050919050565b82818337600083830152505050565b60005b83811015612d36578082015181840152602081019050612d1b565b83811115612d45576000848401525b50505050565b60006002820490506001821680612d6357607f821691505b60208210811415612d7757612d76612eb5565b5b50919050565b612d8682612f13565b810181811067ffffffffffffffff82111715612da557612da4612ee4565b5b80604052505050565b6000612db982612ced565b91507fffffffffffffffffffffffffffffffffffffffffffffffffffffffffffffffff821415612dec57612deb612e28565b5b600182019050919050565b6000612e0282612ced565b9150612e0d83612ced565b925082612e1d57612e1c612e57565b5b828206905092915050565b7f4e487b7100000000000000000000000000000000000000000000000000000000600052601160045260246000fd5b7f4e487b7100000000000000000000000000000000000000000000000000000000600052601260045260246000fd5b7f4e487b7100000000000000000000000000000000000000000000000000000000600052602160045260246000fd5b7f4e487b7100000000000000000000000000000000000000000000000000000000600052602260045260246000fd5b7f4e487b7100000000000000000000000000000000000000000000000000000000600052604160045260246000fd5b6000601f19601f8301169050919050565b7f596f752063616e277420776174657220736f6d656f6e6520656c73652773207060008201527f6c616e7400000000000000000000000000000000000000000000000000000000602082015250565b7f4552433732313a207472616e7366657220746f206e6f6e20455243373231526560008201527f63656976657220696d706c656d656e7465720000000000000000000000000000602082015250565b7f4f776e61626c653a206e6577206f776e657220697320746865207a65726f206160008201527f6464726573730000000000000000000000000000000000000000000000000000602082015250565b7f4552433732313a20746f6b656e20616c7265616479206d696e74656400000000600082015250565b7f4552433732313a207472616e7366657220746f20746865207a65726f2061646460008201527f7265737300000000000000000000000000000000000000000000000000000000602082015250565b7f4552433732313a20617070726f766520746f2063616c6c657200000000000000600082015250565b7f4552433732313a206f70657261746f7220717565727920666f72206e6f6e657860008201527f697374656e7420746f6b656e0000000000000000000000000000000000000000602082015250565b7f4552433732313a20617070726f76652063616c6c6572206973206e6f74206f7760008201527f6e6572206e6f7220617070726f76656420666f7220616c6c0000000000000000602082015250565b7f4552433732313a2062616c616e636520717565727920666f7220746865207a6560008201527f726f206164647265737300000000000000000000000000000000000000000000602082015250565b7f4552433732313a206f776e657220717565727920666f72206e6f6e657869737460008201527f656e7420746f6b656e0000000000000000000000000000000000000000000000602082015250565b7f4552433732313a206d696e7420746f20746865207a65726f2061646472657373600082015250565b7f4552433732313a20617070726f76656420717565727920666f72206e6f6e657860008201527f697374656e7420746f6b656e0000000000000000000000000000000000000000602082015250565b7f4f776e61626c653a2063616c6c6572206973206e6f7420746865206f776e6572600082015250565b7f4552433732313a207472616e73666572206f6620746f6b656e2074686174206960008201527f73206e6f74206f776e0000000000000000000000000000000000000000000000602082015250565b7f4552433732314d657461646174613a2055524920717565727920666f72206e6f60008201527f6e6578697374656e7420746f6b656e0000000000000000000000000000000000602082015250565b7f43616e2774207472616e736665722061206465616420706c616e740000000000600082015250565b7f4552433732313a20617070726f76616c20746f2063757272656e74206f776e6560008201527f7200000000000000000000000000000000000000000000000000000000000000602082015250565b7f43616e27742077617465722061206465616420706c616e740000000000000000600082015250565b7f4552433732313a207472616e736665722063616c6c6572206973206e6f74206f60008201527f776e6572206e6f7220617070726f766564000000000000000000000000000000602082015250565b6004811061342e5761342d612e86565b5b50565b61343a81612c70565b811461344557600080fd5b50565b61345181612c82565b811461345c57600080fd5b50565b61346881612c8e565b811461347357600080fd5b50565b6004811061348357600080fd5b50565b61348f81612ced565b811461349a57600080fd5b5056fea2646970667358221220b82b6e983002e51d7593d240e61b334fbf08c3cf3d3019ebc7c947f74ec022bd64736f6c63430008040033",
  "linkReferences": {},
  "deployedLinkReferences": {}
}