{
  "_format": "hh-sol-artifact-1",
  "contractName": "PlantifulERC721",
  "sourceName": "contracts/PlantifulERC721.sol",
  "abi": [
    {
      "inputs": [
        {
          "internalType": "string",
          "name": "name",
          "type": "string"
        },
        {
          "internalType": "string",
          "name": "symbol",
          "type": "string"
        }
      ],
      "stateMutability": "nonpayable",
      "type": "constructor"
    },
    {
      "anonymous": false,
      "inputs": [
        {
          "indexed": true,
          "internalType": "address",
          "name": "owner",
          "type": "address"
        },
        {
          "indexed": true,
          "internalType": "address",
          "name": "approved",
          "type": "address"
        },
        {
          "indexed": true,
          "internalType": "uint256",
          "name": "tokenId",
          "type": "uint256"
        }
      ],
      "name": "Approval",
      "type": "event"
    },
    {
      "anonymous": false,
      "inputs": [
        {
          "indexed": true,
          "internalType": "address",
          "name": "owner",
          "type": "address"
        },
        {
          "indexed": true,
          "internalType": "address",
          "name": "operator",
          "type": "address"
        },
        {
          "indexed": false,
          "internalType": "bool",
          "name": "approved",
          "type": "bool"
        }
      ],
      "name": "ApprovalForAll",
      "type": "event"
    },
    {
      "anonymous": false,
      "inputs": [
        {
          "indexed": true,
          "internalType": "address",
          "name": "previousOwner",
          "type": "address"
        },
        {
          "indexed": true,
          "internalType": "address",
          "name": "newOwner",
          "type": "address"
        }
      ],
      "name": "OwnershipTransferred",
      "type": "event"
    },
    {
      "anonymous": false,
      "inputs": [
        {
          "indexed": true,
          "internalType": "address",
          "name": "from",
          "type": "address"
        },
        {
          "indexed": true,
          "internalType": "address",
          "name": "to",
          "type": "address"
        },
        {
          "indexed": true,
          "internalType": "uint256",
          "name": "tokenId",
          "type": "uint256"
        }
      ],
      "name": "Transfer",
      "type": "event"
    },
    {
      "inputs": [
        {
          "internalType": "address",
          "name": "to",
          "type": "address"
        },
        {
          "internalType": "uint256",
          "name": "tokenId",
          "type": "uint256"
        }
      ],
      "name": "approve",
      "outputs": [],
      "stateMutability": "nonpayable",
      "type": "function"
    },
    {
      "inputs": [
        {
          "internalType": "address",
          "name": "owner",
          "type": "address"
        }
      ],
      "name": "balanceOf",
      "outputs": [
        {
          "internalType": "uint256",
          "name": "",
          "type": "uint256"
        }
      ],
      "stateMutability": "view",
      "type": "function"
    },
    {
      "inputs": [
        {
          "internalType": "uint256",
          "name": "tokenId",
          "type": "uint256"
        }
      ],
      "name": "getApproved",
      "outputs": [
        {
          "internalType": "address",
          "name": "",
          "type": "address"
        }
      ],
      "stateMutability": "view",
      "type": "function"
    },
    {
      "inputs": [
        {
          "internalType": "address",
          "name": "user",
          "type": "address"
        }
      ],
      "name": "getUsersPlants",
      "outputs": [
        {
          "components": [
            {
              "components": [
                {
                  "internalType": "uint256",
                  "name": "id",
                  "type": "uint256"
                },
                {
                  "internalType": "uint256",
                  "name": "generatedAt",
                  "type": "uint256"
                },
                {
                  "internalType": "uint256",
                  "name": "lastWateredAt",
                  "type": "uint256"
                },
                {
                  "internalType": "uint8",
                  "name": "hp",
                  "type": "uint8"
                },
                {
                  "internalType": "uint8",
                  "name": "moistureSensitivity",
                  "type": "uint8"
                },
                {
                  "internalType": "uint8",
                  "name": "soilDrainageRateInHours",
                  "type": "uint8"
                }
              ],
              "internalType": "struct PlantifulERC721.Plant",
              "name": "plant",
              "type": "tuple"
            },
            {
              "components": [
                {
                  "internalType": "enum PlantifulERC721.LifecycleState",
                  "name": "lifecycleState",
                  "type": "uint8"
                },
                {
                  "internalType": "enum PlantifulERC721.WateredState",
                  "name": "wateredState",
                  "type": "uint8"
                }
              ],
              "internalType": "struct PlantifulERC721.PlantState",
              "name": "state",
              "type": "tuple"
            }
          ],
          "internalType": "struct PlantifulERC721.PlantDetails[]",
          "name": "",
          "type": "tuple[]"
        }
      ],
      "stateMutability": "view",
      "type": "function"
    },
    {
      "inputs": [
        {
          "internalType": "address",
          "name": "owner",
          "type": "address"
        },
        {
          "internalType": "address",
          "name": "operator",
          "type": "address"
        }
      ],
      "name": "isApprovedForAll",
      "outputs": [
        {
          "internalType": "bool",
          "name": "",
          "type": "bool"
        }
      ],
      "stateMutability": "view",
      "type": "function"
    },
    {
      "inputs": [
        {
          "internalType": "uint8",
          "name": "moistureSensitivity",
          "type": "uint8"
        },
        {
          "internalType": "uint8",
          "name": "soilDrainageRateInHours",
          "type": "uint8"
        }
      ],
      "name": "mint",
      "outputs": [],
      "stateMutability": "nonpayable",
      "type": "function"
    },
    {
      "inputs": [],
      "name": "name",
      "outputs": [
        {
          "internalType": "string",
          "name": "",
          "type": "string"
        }
      ],
      "stateMutability": "view",
      "type": "function"
    },
    {
      "inputs": [],
      "name": "owner",
      "outputs": [
        {
          "internalType": "address",
          "name": "",
          "type": "address"
        }
      ],
      "stateMutability": "view",
      "type": "function"
    },
    {
      "inputs": [
        {
          "internalType": "uint256",
          "name": "tokenId",
          "type": "uint256"
        }
      ],
      "name": "ownerOf",
      "outputs": [
        {
          "internalType": "address",
          "name": "",
          "type": "address"
        }
      ],
      "stateMutability": "view",
      "type": "function"
    },
    {
      "inputs": [],
      "name": "renounceOwnership",
      "outputs": [],
      "stateMutability": "nonpayable",
      "type": "function"
    },
    {
      "inputs": [
        {
          "internalType": "address",
          "name": "from",
          "type": "address"
        },
        {
          "internalType": "address",
          "name": "to",
          "type": "address"
        },
        {
          "internalType": "uint256",
          "name": "tokenId",
          "type": "uint256"
        }
      ],
      "name": "safeTransferFrom",
      "outputs": [],
      "stateMutability": "nonpayable",
      "type": "function"
    },
    {
      "inputs": [
        {
          "internalType": "address",
          "name": "from",
          "type": "address"
        },
        {
          "internalType": "address",
          "name": "to",
          "type": "address"
        },
        {
          "internalType": "uint256",
          "name": "tokenId",
          "type": "uint256"
        },
        {
          "internalType": "bytes",
          "name": "_data",
          "type": "bytes"
        }
      ],
      "name": "safeTransferFrom",
      "outputs": [],
      "stateMutability": "nonpayable",
      "type": "function"
    },
    {
      "inputs": [
        {
          "internalType": "address",
          "name": "operator",
          "type": "address"
        },
        {
          "internalType": "bool",
          "name": "approved",
          "type": "bool"
        }
      ],
      "name": "setApprovalForAll",
      "outputs": [],
      "stateMutability": "nonpayable",
      "type": "function"
    },
    {
      "inputs": [
        {
          "internalType": "bytes4",
          "name": "interfaceId",
          "type": "bytes4"
        }
      ],
      "name": "supportsInterface",
      "outputs": [
        {
          "internalType": "bool",
          "name": "",
          "type": "bool"
        }
      ],
      "stateMutability": "view",
      "type": "function"
    },
    {
      "inputs": [],
      "name": "symbol",
      "outputs": [
        {
          "internalType": "string",
          "name": "",
          "type": "string"
        }
      ],
      "stateMutability": "view",
      "type": "function"
    },
    {
      "inputs": [
        {
          "internalType": "uint256",
          "name": "tokenId",
          "type": "uint256"
        }
      ],
      "name": "tokenURI",
      "outputs": [
        {
          "internalType": "string",
          "name": "",
          "type": "string"
        }
      ],
      "stateMutability": "view",
      "type": "function"
    },
    {
      "inputs": [
        {
          "internalType": "address",
          "name": "from",
          "type": "address"
        },
        {
          "internalType": "address",
          "name": "to",
          "type": "address"
        },
        {
          "internalType": "uint256",
          "name": "tokenId",
          "type": "uint256"
        }
      ],
      "name": "transferFrom",
      "outputs": [],
      "stateMutability": "nonpayable",
      "type": "function"
    },
    {
      "inputs": [
        {
          "internalType": "address",
          "name": "newOwner",
          "type": "address"
        }
      ],
      "name": "transferOwnership",
      "outputs": [],
      "stateMutability": "nonpayable",
      "type": "function"
    },
    {
      "inputs": [
        {
          "internalType": "uint256",
          "name": "tokenId",
          "type": "uint256"
        }
      ],
      "name": "water",
      "outputs": [],
      "stateMutability": "nonpayable",
      "type": "function"
    }
  ],
  "bytecode": "0x608060405260006007553480156200001657600080fd5b5060405162003b3438038062003b3483398181016040528101906200003c91906200028a565b818181600090805190602001906200005692919062000168565b5080600190805190602001906200006f92919062000168565b50505062000092620000866200009a60201b60201c565b620000a260201b60201c565b50506200046d565b600033905090565b6000600660009054906101000a900473ffffffffffffffffffffffffffffffffffffffff16905081600660006101000a81548173ffffffffffffffffffffffffffffffffffffffff021916908373ffffffffffffffffffffffffffffffffffffffff1602179055508173ffffffffffffffffffffffffffffffffffffffff168173ffffffffffffffffffffffffffffffffffffffff167f8be0079c531659141344cd1fd0a4f28419497f9722a3daafe3b4186f6b6457e060405160405180910390a35050565b828054620001769062000392565b90600052602060002090601f0160209004810192826200019a5760008555620001e6565b82601f10620001b557805160ff1916838001178555620001e6565b82800160010185558215620001e6579182015b82811115620001e5578251825591602001919060010190620001c8565b5b509050620001f59190620001f9565b5090565b5b8082111562000214576000816000905550600101620001fa565b5090565b60006200022f620002298462000326565b620002fd565b9050828152602081018484840111156200024857600080fd5b620002558482856200035c565b509392505050565b600082601f8301126200026f57600080fd5b81516200028184826020860162000218565b91505092915050565b600080604083850312156200029e57600080fd5b600083015167ffffffffffffffff811115620002b957600080fd5b620002c7858286016200025d565b925050602083015167ffffffffffffffff811115620002e557600080fd5b620002f3858286016200025d565b9150509250929050565b6000620003096200031c565b9050620003178282620003c8565b919050565b6000604051905090565b600067ffffffffffffffff8211156200034457620003436200042d565b5b6200034f826200045c565b9050602081019050919050565b60005b838110156200037c5780820151818401526020810190506200035f565b838111156200038c576000848401525b50505050565b60006002820490506001821680620003ab57607f821691505b60208210811415620003c257620003c1620003fe565b5b50919050565b620003d3826200045c565b810181811067ffffffffffffffff82111715620003f557620003f46200042d565b5b80604052505050565b7f4e487b7100000000000000000000000000000000000000000000000000000000600052602260045260246000fd5b7f4e487b7100000000000000000000000000000000000000000000000000000000600052604160045260246000fd5b6000601f19601f8301169050919050565b6136b7806200047d6000396000f3fe608060405234801561001057600080fd5b50600436106101215760003560e01c8063715018a6116100ad578063a7eec44b11610071578063a7eec44b14610306578063b88d4fde14610322578063c87b56dd1461033e578063e985e9c51461036e578063f2fde38b1461039e57610121565b8063715018a6146102745780638da5cb5b1461027e5780638f93a1c81461029c57806395d89b41146102cc578063a22cb465146102ea57610121565b806323b872dd116100f457806323b872dd146101c057806329a0eee8146101dc57806342842e0e146101f85780636352211e1461021457806370a082311461024457610121565b806301ffc9a71461012657806306fdde0314610156578063081812fc14610174578063095ea7b3146101a4575b600080fd5b610140600480360381019061013b91906123d4565b6103ba565b60405161014d9190612a0b565b60405180910390f35b61015e61049c565b60405161016b9190612a26565b60405180910390f35b61018e60048036038101906101899190612426565b61052e565b60405161019b9190612982565b60405180910390f35b6101be60048036038101906101b99190612398565b6105b3565b005b6101da60048036038101906101d59190612292565b6106cb565b005b6101f660048036038101906101f1919061244f565b61072b565b005b610212600480360381019061020d9190612292565b6108a0565b005b61022e60048036038101906102299190612426565b6108c0565b60405161023b9190612982565b60405180910390f35b61025e6004803603810190610259919061222d565b610972565b60405161026b9190612c88565b60405180910390f35b61027c610a2a565b005b610286610ab2565b6040516102939190612982565b60405180910390f35b6102b660048036038101906102b1919061222d565b610adc565b6040516102c391906129e9565b60405180910390f35b6102d4610d73565b6040516102e19190612a26565b60405180910390f35b61030460048036038101906102ff919061235c565b610e05565b005b610320600480360381019061031b9190612426565b610e1b565b005b61033c600480360381019061033791906122e1565b610e62565b005b61035860048036038101906103539190612426565b610ec4565b6040516103659190612a26565b60405180910390f35b61038860048036038101906103839190612256565b610f6b565b6040516103959190612a0b565b60405180910390f35b6103b860048036038101906103b3919061222d565b610fff565b005b60007f80ac58cd000000000000000000000000000000000000000000000000000000007bffffffffffffffffffffffffffffffffffffffffffffffffffffffff1916827bffffffffffffffffffffffffffffffffffffffffffffffffffffffff1916148061048557507f5b5e139f000000000000000000000000000000000000000000000000000000007bffffffffffffffffffffffffffffffffffffffffffffffffffffffff1916827bffffffffffffffffffffffffffffffffffffffffffffffffffffffff1916145b806104955750610494826110f7565b5b9050919050565b6060600080546104ab90612f3d565b80601f01602080910402602001604051908101604052809291908181526020018280546104d790612f3d565b80156105245780601f106104f957610100808354040283529160200191610524565b820191906000526020600020905b81548152906001019060200180831161050757829003601f168201915b5050505050905090565b600061053982611161565b610578576040517f08c379a000000000000000000000000000000000000000000000000000000000815260040161056f90612ba8565b60405180910390fd5b6004600083815260200190815260200160002060009054906101000a900473ffffffffffffffffffffffffffffffffffffffff169050919050565b60006105be826108c0565b90508073ffffffffffffffffffffffffffffffffffffffff168373ffffffffffffffffffffffffffffffffffffffff16141561062f576040517f08c379a000000000000000000000000000000000000000000000000000000000815260040161062690612c28565b60405180910390fd5b8073ffffffffffffffffffffffffffffffffffffffff1661064e6111cd565b73ffffffffffffffffffffffffffffffffffffffff16148061067d575061067c816106776111cd565b610f6b565b5b6106bc576040517f08c379a00000000000000000000000000000000000000000000000000000000081526004016106b390612b28565b60405180910390fd5b6106c683836111d5565b505050565b6106dc6106d66111cd565b8261128e565b61071b576040517f08c379a000000000000000000000000000000000000000000000000000000000815260040161071290612c68565b60405180910390fd5b61072683838361136c565b505050565b6107336111cd565b73ffffffffffffffffffffffffffffffffffffffff16610751610ab2565b73ffffffffffffffffffffffffffffffffffffffff16146107a7576040517f08c379a000000000000000000000000000000000000000000000000000000000815260040161079e90612bc8565b60405180910390fd5b6040518060c00160405280600754815260200142815260200142815260200160ff801681526020018360ff1681526020018260ff1681525060086000600754815260200190815260200160002060008201518160000155602082015181600101556040820151816002015560608201518160030160006101000a81548160ff021916908360ff16021790555060808201518160030160016101000a81548160ff021916908360ff16021790555060a08201518160030160026101000a81548160ff021916908360ff160217905550905050610884336007546115c8565b6007600081548092919061089790612fa0565b91905055505050565b6108bb83838360405180602001604052806000815250610e62565b505050565b6000806002600084815260200190815260200160002060009054906101000a900473ffffffffffffffffffffffffffffffffffffffff169050600073ffffffffffffffffffffffffffffffffffffffff168173ffffffffffffffffffffffffffffffffffffffff161415610969576040517f08c379a000000000000000000000000000000000000000000000000000000000815260040161096090612b68565b60405180910390fd5b80915050919050565b60008073ffffffffffffffffffffffffffffffffffffffff168273ffffffffffffffffffffffffffffffffffffffff1614156109e3576040517f08c379a00000000000000000000000000000000000000000000000000000000081526004016109da90612b48565b60405180910390fd5b600360008373ffffffffffffffffffffffffffffffffffffffff1673ffffffffffffffffffffffffffffffffffffffff168152602001908152602001600020549050919050565b610a326111cd565b73ffffffffffffffffffffffffffffffffffffffff16610a50610ab2565b73ffffffffffffffffffffffffffffffffffffffff1614610aa6576040517f08c379a0000000000000000000000000000000000000000000000000000000008152600401610a9d90612bc8565b60405180910390fd5b610ab060006115e6565b565b6000600660009054906101000a900473ffffffffffffffffffffffffffffffffffffffff16905090565b60606000610ae983610972565b90506000811415610b7757600067ffffffffffffffff811115610b35577f4e487b7100000000000000000000000000000000000000000000000000000000600052604160045260246000fd5b604051908082528060200260200182016040528015610b6e57816020015b610b5b612058565b815260200190600190039081610b535790505b50915050610d6e565b60008167ffffffffffffffff811115610bb9577f4e487b7100000000000000000000000000000000000000000000000000000000600052604160045260246000fd5b604051908082528060200260200182016040528015610bf257816020015b610bdf612058565b815260200190600190039081610bd75790505b509050600060075490506000805b82811015610d65578673ffffffffffffffffffffffffffffffffffffffff16610c28826108c0565b73ffffffffffffffffffffffffffffffffffffffff161415610d52576000600860008381526020019081526020016000206040518060c00160405290816000820154815260200160018201548152602001600282015481526020016003820160009054906101000a900460ff1660ff1660ff1681526020016003820160019054906101000a900460ff1660ff1660ff1681526020016003820160029054906101000a900460ff1660ff1660ff168152505090506000610ce6826116ac565b9050604051806040016040528083815260200182815250868581518110610d36577f4e487b7100000000000000000000000000000000000000000000000000000000600052603260045260246000fd5b60200260200101819052508380610d4c90612fa0565b94505050505b8080610d5d90612fa0565b915050610c00565b83955050505050505b919050565b606060018054610d8290612f3d565b80601f0160208091040260200160405190810160405280929190818152602001828054610dae90612f3d565b8015610dfb5780601f10610dd057610100808354040283529160200191610dfb565b820191906000526020600020905b815481529060010190602001808311610dde57829003601f168201915b5050505050905090565b610e17610e106111cd565b8383611753565b5050565b610e24816118c0565b6000600860008381526020019081526020016000209050610e558160030160009054906101000a900460ff16611939565b4281600201819055505050565b610e73610e6d6111cd565b8361128e565b610eb2576040517f08c379a0000000000000000000000000000000000000000000000000000000008152600401610ea990612c68565b60405180910390fd5b610ebe84848484611982565b50505050565b6060610ecf82611161565b610f0e576040517f08c379a0000000000000000000000000000000000000000000000000000000008152600401610f0590612c08565b60405180910390fd5b6000610f186119de565b90506000815111610f385760405180602001604052806000815250610f63565b80610f42846119f5565b604051602001610f5392919061295e565b6040516020818303038152906040525b915050919050565b6000600560008473ffffffffffffffffffffffffffffffffffffffff1673ffffffffffffffffffffffffffffffffffffffff16815260200190815260200160002060008373ffffffffffffffffffffffffffffffffffffffff1673ffffffffffffffffffffffffffffffffffffffff16815260200190815260200160002060009054906101000a900460ff16905092915050565b6110076111cd565b73ffffffffffffffffffffffffffffffffffffffff16611025610ab2565b73ffffffffffffffffffffffffffffffffffffffff161461107b576040517f08c379a000000000000000000000000000000000000000000000000000000000815260040161107290612bc8565b60405180910390fd5b600073ffffffffffffffffffffffffffffffffffffffff168173ffffffffffffffffffffffffffffffffffffffff1614156110eb576040517f08c379a00000000000000000000000000000000000000000000000000000000081526004016110e290612a88565b60405180910390fd5b6110f4816115e6565b50565b60007f01ffc9a7000000000000000000000000000000000000000000000000000000007bffffffffffffffffffffffffffffffffffffffffffffffffffffffff1916827bffffffffffffffffffffffffffffffffffffffffffffffffffffffff1916149050919050565b60008073ffffffffffffffffffffffffffffffffffffffff166002600084815260200190815260200160002060009054906101000a900473ffffffffffffffffffffffffffffffffffffffff1673ffffffffffffffffffffffffffffffffffffffff1614159050919050565b600033905090565b816004600083815260200190815260200160002060006101000a81548173ffffffffffffffffffffffffffffffffffffffff021916908373ffffffffffffffffffffffffffffffffffffffff160217905550808273ffffffffffffffffffffffffffffffffffffffff16611248836108c0565b73ffffffffffffffffffffffffffffffffffffffff167f8c5be1e5ebec7d5bd14f71427d1e84f3dd0314c0f7b2291e5b200ac8c7c3b92560405160405180910390a45050565b600061129982611161565b6112d8576040517f08c379a00000000000000000000000000000000000000000000000000000000081526004016112cf90612b08565b60405180910390fd5b60006112e3836108c0565b90508073ffffffffffffffffffffffffffffffffffffffff168473ffffffffffffffffffffffffffffffffffffffff16148061135257508373ffffffffffffffffffffffffffffffffffffffff1661133a8461052e565b73ffffffffffffffffffffffffffffffffffffffff16145b8061136357506113628185610f6b565b5b91505092915050565b8273ffffffffffffffffffffffffffffffffffffffff1661138c826108c0565b73ffffffffffffffffffffffffffffffffffffffff16146113e2576040517f08c379a00000000000000000000000000000000000000000000000000000000081526004016113d990612be8565b60405180910390fd5b600073ffffffffffffffffffffffffffffffffffffffff168273ffffffffffffffffffffffffffffffffffffffff161415611452576040517f08c379a000000000000000000000000000000000000000000000000000000000815260040161144990612ac8565b60405180910390fd5b61145d838383611ba2565b6114686000826111d5565b6001600360008573ffffffffffffffffffffffffffffffffffffffff1673ffffffffffffffffffffffffffffffffffffffff16815260200190815260200160002060008282546114b89190612dfc565b925050819055506001600360008473ffffffffffffffffffffffffffffffffffffffff1673ffffffffffffffffffffffffffffffffffffffff168152602001908152602001600020600082825461150f9190612d75565b92505081905550816002600083815260200190815260200160002060006101000a81548173ffffffffffffffffffffffffffffffffffffffff021916908373ffffffffffffffffffffffffffffffffffffffff160217905550808273ffffffffffffffffffffffffffffffffffffffff168473ffffffffffffffffffffffffffffffffffffffff167fddf252ad1be2c89b69c2b068fc378daa952ba7f163c4a11628f55a4df523b3ef60405160405180910390a4505050565b6115e2828260405180602001604052806000815250611be4565b5050565b6000600660009054906101000a900473ffffffffffffffffffffffffffffffffffffffff16905081600660006101000a81548173ffffffffffffffffffffffffffffffffffffffff021916908373ffffffffffffffffffffffffffffffffffffffff1602179055508173ffffffffffffffffffffffffffffffffffffffff168173ffffffffffffffffffffffffffffffffffffffff167f8be0079c531659141344cd1fd0a4f28419497f9722a3daafe3b4186f6b6457e060405160405180910390a35050565b6116b461207e565b60006116c38360200151611c3f565b90506040518060400160405280826004811115611709577f4e487b7100000000000000000000000000000000000000000000000000000000600052602160045260246000fd5b815260200160006002811115611748577f4e487b7100000000000000000000000000000000000000000000000000000000600052602160045260246000fd5b815250915050919050565b8173ffffffffffffffffffffffffffffffffffffffff168373ffffffffffffffffffffffffffffffffffffffff1614156117c2576040517f08c379a00000000000000000000000000000000000000000000000000000000081526004016117b990612ae8565b60405180910390fd5b80600560008573ffffffffffffffffffffffffffffffffffffffff1673ffffffffffffffffffffffffffffffffffffffff16815260200190815260200160002060008473ffffffffffffffffffffffffffffffffffffffff1673ffffffffffffffffffffffffffffffffffffffff16815260200190815260200160002060006101000a81548160ff0219169083151502179055508173ffffffffffffffffffffffffffffffffffffffff168373ffffffffffffffffffffffffffffffffffffffff167f17307eab39ab6107e8899845ad3d59bd9653f200f220920489ca2b5937696c31836040516118b39190612a0b565b60405180910390a3505050565b6118c9816108c0565b73ffffffffffffffffffffffffffffffffffffffff163373ffffffffffffffffffffffffffffffffffffffff1614611936576040517f08c379a000000000000000000000000000000000000000000000000000000000815260040161192d90612a48565b60405180910390fd5b50565b60008160ff161161197f576040517f08c379a000000000000000000000000000000000000000000000000000000000815260040161197690612c48565b60405180910390fd5b50565b61198d84848461136c565b61199984848484611cdb565b6119d8576040517f08c379a00000000000000000000000000000000000000000000000000000000081526004016119cf90612a68565b60405180910390fd5b50505050565b606060405180602001604052806000815250905090565b60606000821415611a3d576040518060400160405280600181526020017f30000000000000000000000000000000000000000000000000000000000000008152509050611b9d565b600082905060005b60008214611a6f578080611a5890612fa0565b915050600a82611a689190612dcb565b9150611a45565b60008167ffffffffffffffff811115611ab1577f4e487b7100000000000000000000000000000000000000000000000000000000600052604160045260246000fd5b6040519080825280601f01601f191660200182016040528015611ae35781602001600182028036833780820191505090505b5090505b60008514611b9657600182611afc9190612dfc565b9150600a85611b0b9190612fe9565b6030611b179190612d75565b60f81b818381518110611b53577f4e487b7100000000000000000000000000000000000000000000000000000000600052603260045260246000fd5b60200101907effffffffffffffffffffffffffffffffffffffffffffffffffffffffffffff1916908160001a905350600a85611b8f9190612dcb565b9450611ae7565b8093505050505b919050565b6000600860008381526020019081526020016000209050611bd38160030160009054906101000a900460ff16611939565b611bde848484611e72565b50505050565b611bee8383611e77565b611bfb6000848484611cdb565b611c3a576040517f08c379a0000000000000000000000000000000000000000000000000000000008152600401611c3190612a68565b60405180910390fd5b505050565b6000808242611c4e9190612dfc565b90506203f4808111611c64576000915050611cd6565b6203f48081118015611c79575062093a808111155b15611c88576001915050611cd6565b6203f48081118015611c9d5750621275008111155b15611cac576002915050611cd6565b6212750081118015611cc15750621baf808111155b15611cd0576003915050611cd6565b60049150505b919050565b6000611cfc8473ffffffffffffffffffffffffffffffffffffffff16612045565b15611e65578373ffffffffffffffffffffffffffffffffffffffff1663150b7a02611d256111cd565b8786866040518563ffffffff1660e01b8152600401611d47949392919061299d565b602060405180830381600087803b158015611d6157600080fd5b505af1925050508015611d9257506040513d601f19601f82011682018060405250810190611d8f91906123fd565b60015b611e15573d8060008114611dc2576040519150601f19603f3d011682016040523d82523d6000602084013e611dc7565b606091505b50600081511415611e0d576040517f08c379a0000000000000000000000000000000000000000000000000000000008152600401611e0490612a68565b60405180910390fd5b805181602001fd5b63150b7a0260e01b7bffffffffffffffffffffffffffffffffffffffffffffffffffffffff1916817bffffffffffffffffffffffffffffffffffffffffffffffffffffffff191614915050611e6a565b600190505b949350505050565b505050565b600073ffffffffffffffffffffffffffffffffffffffff168273ffffffffffffffffffffffffffffffffffffffff161415611ee7576040517f08c379a0000000000000000000000000000000000000000000000000000000008152600401611ede90612b88565b60405180910390fd5b611ef081611161565b15611f30576040517f08c379a0000000000000000000000000000000000000000000000000000000008152600401611f2790612aa8565b60405180910390fd5b611f3c60008383611ba2565b6001600360008473ffffffffffffffffffffffffffffffffffffffff1673ffffffffffffffffffffffffffffffffffffffff1681526020019081526020016000206000828254611f8c9190612d75565b92505081905550816002600083815260200190815260200160002060006101000a81548173ffffffffffffffffffffffffffffffffffffffff021916908373ffffffffffffffffffffffffffffffffffffffff160217905550808273ffffffffffffffffffffffffffffffffffffffff16600073ffffffffffffffffffffffffffffffffffffffff167fddf252ad1be2c89b69c2b068fc378daa952ba7f163c4a11628f55a4df523b3ef60405160405180910390a45050565b600080823b905060008111915050919050565b604051806040016040528061206b612108565b815260200161207861207e565b81525090565b6040518060400160405280600060048111156120c3577f4e487b7100000000000000000000000000000000000000000000000000000000600052602160045260246000fd5b815260200160006002811115612102577f4e487b7100000000000000000000000000000000000000000000000000000000600052602160045260246000fd5b81525090565b6040518060c00160405280600081526020016000815260200160008152602001600060ff168152602001600060ff168152602001600060ff1681525090565b600061215a61215584612cc8565b612ca3565b90508281526020810184848401111561217257600080fd5b61217d848285612efb565b509392505050565b6000813590506121948161360e565b92915050565b6000813590506121a981613625565b92915050565b6000813590506121be8161363c565b92915050565b6000815190506121d38161363c565b92915050565b600082601f8301126121ea57600080fd5b81356121fa848260208601612147565b91505092915050565b60008135905061221281613653565b92915050565b6000813590506122278161366a565b92915050565b60006020828403121561223f57600080fd5b600061224d84828501612185565b91505092915050565b6000806040838503121561226957600080fd5b600061227785828601612185565b925050602061228885828601612185565b9150509250929050565b6000806000606084860312156122a757600080fd5b60006122b586828701612185565b93505060206122c686828701612185565b92505060406122d786828701612203565b9150509250925092565b600080600080608085870312156122f757600080fd5b600061230587828801612185565b945050602061231687828801612185565b935050604061232787828801612203565b925050606085013567ffffffffffffffff81111561234457600080fd5b612350878288016121d9565b91505092959194509250565b6000806040838503121561236f57600080fd5b600061237d85828601612185565b925050602061238e8582860161219a565b9150509250929050565b600080604083850312156123ab57600080fd5b60006123b985828601612185565b92505060206123ca85828601612203565b9150509250929050565b6000602082840312156123e657600080fd5b60006123f4848285016121af565b91505092915050565b60006020828403121561240f57600080fd5b600061241d848285016121c4565b91505092915050565b60006020828403121561243857600080fd5b600061244684828501612203565b91505092915050565b6000806040838503121561246257600080fd5b600061247085828601612218565b925050602061248185828601612218565b9150509250929050565b60006124978383612857565b6101008301905092915050565b6124ad81612e30565b82525050565b60006124be82612d09565b6124c88185612d37565b93506124d383612cf9565b8060005b838110156125045781516124eb888261248b565b97506124f683612d2a565b9250506001810190506124d7565b5085935050505092915050565b61251a81612e42565b82525050565b600061252b82612d14565b6125358185612d48565b9350612545818560208601612f0a565b61254e81613105565b840191505092915050565b61256281612ed7565b82525050565b61257181612ee9565b82525050565b600061258282612d1f565b61258c8185612d59565b935061259c818560208601612f0a565b6125a581613105565b840191505092915050565b60006125bb82612d1f565b6125c58185612d6a565b93506125d5818560208601612f0a565b80840191505092915050565b60006125ee602483612d59565b91506125f982613116565b604082019050919050565b6000612611603283612d59565b915061261c82613165565b604082019050919050565b6000612634602683612d59565b915061263f826131b4565b604082019050919050565b6000612657601c83612d59565b915061266282613203565b602082019050919050565b600061267a602483612d59565b91506126858261322c565b604082019050919050565b600061269d601983612d59565b91506126a88261327b565b602082019050919050565b60006126c0602c83612d59565b91506126cb826132a4565b604082019050919050565b60006126e3603883612d59565b91506126ee826132f3565b604082019050919050565b6000612706602a83612d59565b915061271182613342565b604082019050919050565b6000612729602983612d59565b915061273482613391565b604082019050919050565b600061274c602083612d59565b9150612757826133e0565b602082019050919050565b600061276f602c83612d59565b915061277a82613409565b604082019050919050565b6000612792602083612d59565b915061279d82613458565b602082019050919050565b60006127b5602983612d59565b91506127c082613481565b604082019050919050565b60006127d8602f83612d59565b91506127e3826134d0565b604082019050919050565b60006127fb602183612d59565b91506128068261351f565b604082019050919050565b600061281e601883612d59565b91506128298261356e565b602082019050919050565b6000612841603183612d59565b915061284c82613597565b604082019050919050565b6101008201600082015161286e60008501826128b6565b50602082015161288160c0850182612887565b50505050565b60408201600082015161289d6000850182612559565b5060208201516128b06020850182612568565b50505050565b60c0820160008201516128cc6000850182612931565b5060208201516128df6020850182612931565b5060408201516128f26040850182612931565b506060820151612905606085018261294f565b506080820151612918608085018261294f565b5060a082015161292b60a085018261294f565b50505050565b61293a81612ec0565b82525050565b61294981612ec0565b82525050565b61295881612eca565b82525050565b600061296a82856125b0565b915061297682846125b0565b91508190509392505050565b600060208201905061299760008301846124a4565b92915050565b60006080820190506129b260008301876124a4565b6129bf60208301866124a4565b6129cc6040830185612940565b81810360608301526129de8184612520565b905095945050505050565b60006020820190508181036000830152612a0381846124b3565b905092915050565b6000602082019050612a206000830184612511565b92915050565b60006020820190508181036000830152612a408184612577565b905092915050565b60006020820190508181036000830152612a61816125e1565b9050919050565b60006020820190508181036000830152612a8181612604565b9050919050565b60006020820190508181036000830152612aa181612627565b9050919050565b60006020820190508181036000830152612ac18161264a565b9050919050565b60006020820190508181036000830152612ae18161266d565b9050919050565b60006020820190508181036000830152612b0181612690565b9050919050565b60006020820190508181036000830152612b21816126b3565b9050919050565b60006020820190508181036000830152612b41816126d6565b9050919050565b60006020820190508181036000830152612b61816126f9565b9050919050565b60006020820190508181036000830152612b818161271c565b9050919050565b60006020820190508181036000830152612ba18161273f565b9050919050565b60006020820190508181036000830152612bc181612762565b9050919050565b60006020820190508181036000830152612be181612785565b9050919050565b60006020820190508181036000830152612c01816127a8565b9050919050565b60006020820190508181036000830152612c21816127cb565b9050919050565b60006020820190508181036000830152612c41816127ee565b9050919050565b60006020820190508181036000830152612c6181612811565b9050919050565b60006020820190508181036000830152612c8181612834565b9050919050565b6000602082019050612c9d6000830184612940565b92915050565b6000612cad612cbe565b9050612cb98282612f6f565b919050565b6000604051905090565b600067ffffffffffffffff821115612ce357612ce26130d6565b5b612cec82613105565b9050602081019050919050565b6000819050602082019050919050565b600081519050919050565b600081519050919050565b600081519050919050565b6000602082019050919050565b600082825260208201905092915050565b600082825260208201905092915050565b600082825260208201905092915050565b600081905092915050565b6000612d8082612ec0565b9150612d8b83612ec0565b9250827fffffffffffffffffffffffffffffffffffffffffffffffffffffffffffffffff03821115612dc057612dbf61301a565b5b828201905092915050565b6000612dd682612ec0565b9150612de183612ec0565b925082612df157612df0613049565b5b828204905092915050565b6000612e0782612ec0565b9150612e1283612ec0565b925082821015612e2557612e2461301a565b5b828203905092915050565b6000612e3b82612ea0565b9050919050565b60008115159050919050565b60007fffffffff0000000000000000000000000000000000000000000000000000000082169050919050565b6000819050612e88826135e6565b919050565b6000819050612e9b826135fa565b919050565b600073ffffffffffffffffffffffffffffffffffffffff82169050919050565b6000819050919050565b600060ff82169050919050565b6000612ee282612e7a565b9050919050565b6000612ef482612e8d565b9050919050565b82818337600083830152505050565b60005b83811015612f28578082015181840152602081019050612f0d565b83811115612f37576000848401525b50505050565b60006002820490506001821680612f5557607f821691505b60208210811415612f6957612f686130a7565b5b50919050565b612f7882613105565b810181811067ffffffffffffffff82111715612f9757612f966130d6565b5b80604052505050565b6000612fab82612ec0565b91507fffffffffffffffffffffffffffffffffffffffffffffffffffffffffffffffff821415612fde57612fdd61301a565b5b600182019050919050565b6000612ff482612ec0565b9150612fff83612ec0565b92508261300f5761300e613049565b5b828206905092915050565b7f4e487b7100000000000000000000000000000000000000000000000000000000600052601160045260246000fd5b7f4e487b7100000000000000000000000000000000000000000000000000000000600052601260045260246000fd5b7f4e487b7100000000000000000000000000000000000000000000000000000000600052602160045260246000fd5b7f4e487b7100000000000000000000000000000000000000000000000000000000600052602260045260246000fd5b7f4e487b7100000000000000000000000000000000000000000000000000000000600052604160045260246000fd5b6000601f19601f8301169050919050565b7f596f752063616e277420776174657220736f6d656f6e6520656c73652773207060008201527f6c616e7400000000000000000000000000000000000000000000000000000000602082015250565b7f4552433732313a207472616e7366657220746f206e6f6e20455243373231526560008201527f63656976657220696d706c656d656e7465720000000000000000000000000000602082015250565b7f4f776e61626c653a206e6577206f776e657220697320746865207a65726f206160008201527f6464726573730000000000000000000000000000000000000000000000000000602082015250565b7f4552433732313a20746f6b656e20616c7265616479206d696e74656400000000600082015250565b7f4552433732313a207472616e7366657220746f20746865207a65726f2061646460008201527f7265737300000000000000000000000000000000000000000000000000000000602082015250565b7f4552433732313a20617070726f766520746f2063616c6c657200000000000000600082015250565b7f4552433732313a206f70657261746f7220717565727920666f72206e6f6e657860008201527f697374656e7420746f6b656e0000000000000000000000000000000000000000602082015250565b7f4552433732313a20617070726f76652063616c6c6572206973206e6f74206f7760008201527f6e6572206e6f7220617070726f76656420666f7220616c6c0000000000000000602082015250565b7f4552433732313a2062616c616e636520717565727920666f7220746865207a6560008201527f726f206164647265737300000000000000000000000000000000000000000000602082015250565b7f4552433732313a206f776e657220717565727920666f72206e6f6e657869737460008201527f656e7420746f6b656e0000000000000000000000000000000000000000000000602082015250565b7f4552433732313a206d696e7420746f20746865207a65726f2061646472657373600082015250565b7f4552433732313a20617070726f76656420717565727920666f72206e6f6e657860008201527f697374656e7420746f6b656e0000000000000000000000000000000000000000602082015250565b7f4f776e61626c653a2063616c6c6572206973206e6f7420746865206f776e6572600082015250565b7f4552433732313a207472616e73666572206f6620746f6b656e2074686174206960008201527f73206e6f74206f776e0000000000000000000000000000000000000000000000602082015250565b7f4552433732314d657461646174613a2055524920717565727920666f72206e6f60008201527f6e6578697374656e7420746f6b656e0000000000000000000000000000000000602082015250565b7f4552433732313a20617070726f76616c20746f2063757272656e74206f776e6560008201527f7200000000000000000000000000000000000000000000000000000000000000602082015250565b7f43616e27742077617465722061206465616420706c616e740000000000000000600082015250565b7f4552433732313a207472616e736665722063616c6c6572206973206e6f74206f60008201527f776e6572206e6f7220617070726f766564000000000000000000000000000000602082015250565b600581106135f7576135f6613078565b5b50565b6003811061360b5761360a613078565b5b50565b61361781612e30565b811461362257600080fd5b50565b61362e81612e42565b811461363957600080fd5b50565b61364581612e4e565b811461365057600080fd5b50565b61365c81612ec0565b811461366757600080fd5b50565b61367381612eca565b811461367e57600080fd5b5056fea264697066735822122000c3900de7fc8f863cede757e3f36b455ff0d73f25cdd6cb13fc2af15736443264736f6c63430008040033",
  "linkReferences": {},
  "deployedLinkReferences": {}
}